{
  "contractName": "DistributionHub",
  "abi": [
    {
      "inputs": [],
      "payable": false,
      "stateMutability": "nonpayable",
      "type": "constructor"
    },
    {
      "anonymous": false,
      "inputs": [
        {
          "indexed": true,
          "internalType": "address",
          "name": "_account",
          "type": "address"
        }
      ],
      "name": "DistributionHubAdded",
      "type": "event"
    },
    {
      "anonymous": false,
      "inputs": [
        {
          "indexed": true,
          "internalType": "address",
          "name": "_account",
          "type": "address"
        }
      ],
      "name": "DistributionHubRemoved",
      "type": "event"
    },
    {
      "constant": true,
      "inputs": [
        {
          "internalType": "address",
          "name": "_account",
          "type": "address"
        }
      ],
      "name": "isDistributionHub",
      "outputs": [
        {
          "internalType": "bool",
          "name": "",
          "type": "bool"
        }
      ],
      "payable": false,
      "stateMutability": "view",
      "type": "function"
    },
    {
      "constant": false,
      "inputs": [
        {
          "internalType": "address",
          "name": "_account",
          "type": "address"
        }
      ],
      "name": "addDistributionHub",
      "outputs": [],
      "payable": false,
      "stateMutability": "nonpayable",
      "type": "function"
    },
    {
      "constant": false,
      "inputs": [],
      "name": "removeDistributionHub",
      "outputs": [],
      "payable": false,
      "stateMutability": "nonpayable",
      "type": "function"
    }
  ],
  "bytecode": "0x608060405234801561001057600080fd5b5061002933600061005960201b6101a81790919060201c565b60405133907f2dfa3d277a8a09067eacea45ba517a90cfb24e4e69d1f51388a02e551028983090600090a26100e3565b6001600160a01b03811661006c57600080fd5b61007f82826001600160e01b036100ae16565b1561008957600080fd5b6001600160a01b0316600090815260209190915260409020805460ff19166001179055565b60006001600160a01b0382166100c357600080fd5b506001600160a01b03166000908152602091909152604090205460ff1690565b61025e806100f26000396000f3fe608060405234801561001057600080fd5b50600436106100415760003560e01c8063217023be14610046578063360c12e814610050578063db6ed67c14610076575b600080fd5b61004e6100b0565b005b61004e6004803603602081101561006657600080fd5b50356001600160a01b03166100ee565b61009c6004803603602081101561008c57600080fd5b50356001600160a01b0316610148565b604080519115158252519081900360200190f35b6100c160003363ffffffff61016016565b60405133907f8103d7de73d3acff2e6778599e2a854d2e4212cfca503621381b9f5fe3ca825990600090a2565b6100f733610148565b61010057600080fd5b61011160008263ffffffff6101a816565b6040516001600160a01b038216907f2dfa3d277a8a09067eacea45ba517a90cfb24e4e69d1f51388a02e551028983090600090a250565b600061015a818363ffffffff6101f416565b92915050565b6001600160a01b03811661017357600080fd5b61017d82826101f4565b61018657600080fd5b6001600160a01b0316600090815260209190915260409020805460ff19169055565b6001600160a01b0381166101bb57600080fd5b6101c582826101f4565b156101cf57600080fd5b6001600160a01b0316600090815260209190915260409020805460ff19166001179055565b60006001600160a01b03821661020957600080fd5b506001600160a01b03166000908152602091909152604090205460ff169056fea265627a7a7231582063a4be9918e9e85b4c6fb1d40df7ea10dd57ef0824f65375ed113e1373a6ad0b64736f6c63430005100032",
  "source": "// SPDX-License-Identifier: MIT\npragma solidity >=0.4.21 <0.9.0;\n\nimport \"./Roles.sol\";\n\ncontract DistributionHub {\n    using Roles for Roles.Role;\n\n    event DistributionHubAdded(address indexed _account);\n    event DistributionHubRemoved(address indexed _account);\n\n    Roles.Role private distributionHubsList;\n\n    constructor() public {\n        distributionHubsList.addRole(msg.sender);\n        emit DistributionHubAdded(msg.sender);\n    }\n\n    modifier onlyDistributionHub() {\n        require(isDistributionHub(msg.sender));\n        _;\n    }\n\n    //expected to be an Ethereum address that will be checked to determine if it belongs to a distribution hub (_account - function parameter)\n    function isDistributionHub(address _account) public view returns (bool) {\n        return distributionHubsList.hasRole(_account);\n    }\n\n    function addDistributionHub(address _account) public onlyDistributionHub {\n        distributionHubsList.addRole(_account);\n        emit DistributionHubAdded(_account);\n    }\n\n    function removeDistributionHub() public {\n        distributionHubsList.removeRole(msg.sender);\n        emit DistributionHubRemoved(msg.sender);\n    }\n}\n",
  "sourcePath": "/Users/mac/Desktop/scm-dapp/contracts/DistributionHub.sol",
  "compiler": {
    "name": "solc",
    "version": "0.5.16+commit.9c3226ce.Emscripten.clang"
  },
  "schemaVersion": "3.4.16",
  "updatedAt": "2024-06-08T17:46:42.497Z",
  "devdoc": {
    "methods": {}
  },
  "userdoc": {
    "methods": {}
  }
}