{
  "contractName": "SupplyChain",
  "abi": [
    {
      "inputs": [],
      "payable": true,
      "stateMutability": "payable",
      "type": "constructor"
    },
    {
      "anonymous": false,
      "inputs": [
        {
          "indexed": false,
          "internalType": "uint256",
          "name": "uid",
          "type": "uint256"
        }
      ],
      "name": "Manufactured",
      "type": "event"
    },
    {
      "anonymous": false,
      "inputs": [
        {
          "indexed": true,
          "internalType": "address",
          "name": "_account",
          "type": "address"
        }
      ],
      "name": "ManufacturerAdded",
      "type": "event"
    },
    {
      "anonymous": false,
      "inputs": [
        {
          "indexed": false,
          "internalType": "uint256",
          "name": "uid",
          "type": "uint256"
        }
      ],
      "name": "PurchasedByCustomer",
      "type": "event"
    },
    {
      "anonymous": false,
      "inputs": [
        {
          "indexed": false,
          "internalType": "uint256",
          "name": "uid",
          "type": "uint256"
        }
      ],
      "name": "PurchasedByRetailer",
      "type": "event"
    },
    {
      "anonymous": false,
      "inputs": [
        {
          "indexed": false,
          "internalType": "uint256",
          "name": "uid",
          "type": "uint256"
        }
      ],
      "name": "ReceivedByCustomer",
      "type": "event"
    },
    {
      "anonymous": false,
      "inputs": [
        {
          "indexed": false,
          "internalType": "uint256",
          "name": "uid",
          "type": "uint256"
        }
      ],
      "name": "ReceivedByDistributionHub",
      "type": "event"
    },
    {
      "anonymous": false,
      "inputs": [
        {
          "indexed": false,
          "internalType": "uint256",
          "name": "uid",
          "type": "uint256"
        }
      ],
      "name": "ReceivedByRetailer",
      "type": "event"
    },
    {
      "anonymous": false,
      "inputs": [
        {
          "indexed": false,
          "internalType": "uint256",
          "name": "uid",
          "type": "uint256"
        }
      ],
      "name": "ShippedByDistributionHub",
      "type": "event"
    },
    {
      "anonymous": false,
      "inputs": [
        {
          "indexed": false,
          "internalType": "uint256",
          "name": "uid",
          "type": "uint256"
        }
      ],
      "name": "ShippedByManufacturer",
      "type": "event"
    },
    {
      "anonymous": false,
      "inputs": [
        {
          "indexed": false,
          "internalType": "uint256",
          "name": "uid",
          "type": "uint256"
        }
      ],
      "name": "ShippedByRetailer",
      "type": "event"
    },
    {
      "constant": true,
      "inputs": [],
      "name": "stockKeepingUnit",
      "outputs": [
        {
          "internalType": "uint256",
          "name": "",
          "type": "uint256"
        }
      ],
      "payable": false,
      "stateMutability": "view",
      "type": "function"
    },
    {
      "constant": true,
      "inputs": [],
      "name": "uid",
      "outputs": [
        {
          "internalType": "uint256",
          "name": "",
          "type": "uint256"
        }
      ],
      "payable": false,
      "stateMutability": "view",
      "type": "function"
    },
    {
      "constant": true,
      "inputs": [
        {
          "internalType": "address",
          "name": "_account",
          "type": "address"
        }
      ],
      "name": "hasManufacturerRole",
      "outputs": [
        {
          "internalType": "bool",
          "name": "",
          "type": "bool"
        }
      ],
      "payable": false,
      "stateMutability": "view",
      "type": "function"
    },
    {
      "constant": false,
      "inputs": [
        {
          "internalType": "address",
          "name": "_account",
          "type": "address"
        }
      ],
      "name": "addManufacturerRole",
      "outputs": [],
      "payable": false,
      "stateMutability": "nonpayable",
      "type": "function"
    },
    {
      "constant": true,
      "inputs": [
        {
          "internalType": "address",
          "name": "_account",
          "type": "address"
        }
      ],
      "name": "hasRetailerRole",
      "outputs": [
        {
          "internalType": "bool",
          "name": "",
          "type": "bool"
        }
      ],
      "payable": false,
      "stateMutability": "view",
      "type": "function"
    },
    {
      "constant": false,
      "inputs": [
        {
          "internalType": "address",
          "name": "_account",
          "type": "address"
        }
      ],
      "name": "addRetailerRole",
      "outputs": [],
      "payable": false,
      "stateMutability": "nonpayable",
      "type": "function"
    },
    {
      "constant": true,
      "inputs": [
        {
          "internalType": "address",
          "name": "_account",
          "type": "address"
        }
      ],
      "name": "hasDistributionHubRole",
      "outputs": [
        {
          "internalType": "bool",
          "name": "",
          "type": "bool"
        }
      ],
      "payable": false,
      "stateMutability": "view",
      "type": "function"
    },
    {
      "constant": false,
      "inputs": [
        {
          "internalType": "address",
          "name": "_account",
          "type": "address"
        }
      ],
      "name": "addDistributionHubRole",
      "outputs": [],
      "payable": false,
      "stateMutability": "nonpayable",
      "type": "function"
    },
    {
      "constant": true,
      "inputs": [
        {
          "internalType": "address",
          "name": "_account",
          "type": "address"
        }
      ],
      "name": "hasCustomerRole",
      "outputs": [
        {
          "internalType": "bool",
          "name": "",
          "type": "bool"
        }
      ],
      "payable": false,
      "stateMutability": "view",
      "type": "function"
    },
    {
      "constant": false,
      "inputs": [
        {
          "internalType": "address",
          "name": "_account",
          "type": "address"
        }
      ],
      "name": "addCustomerRole",
      "outputs": [],
      "payable": false,
      "stateMutability": "nonpayable",
      "type": "function"
    },
    {
      "constant": false,
      "inputs": [
        {
          "internalType": "string",
          "name": "manufacturerName",
          "type": "string"
        },
        {
          "internalType": "string",
          "name": "manufactureDetails",
          "type": "string"
        },
        {
          "internalType": "string",
          "name": "manufactureLongitude",
          "type": "string"
        },
        {
          "internalType": "string",
          "name": "manufactureLatitude",
          "type": "string"
        },
        {
          "internalType": "string",
          "name": "productName",
          "type": "string"
        },
        {
          "internalType": "string",
          "name": "productCategory",
          "type": "string"
        },
        {
          "internalType": "uint256",
          "name": "productCode",
          "type": "uint256"
        },
        {
          "internalType": "uint256",
          "name": "productPrice",
          "type": "uint256"
        }
      ],
      "name": "manufactureProduct",
      "outputs": [],
      "payable": false,
      "stateMutability": "nonpayable",
      "type": "function"
    },
    {
      "constant": false,
      "inputs": [
        {
          "internalType": "uint256",
          "name": "_uid",
          "type": "uint256"
        }
      ],
      "name": "purchaseByRetailer",
      "outputs": [],
      "payable": false,
      "stateMutability": "nonpayable",
      "type": "function"
    },
    {
      "constant": false,
      "inputs": [
        {
          "internalType": "uint256",
          "name": "_uid",
          "type": "uint256"
        }
      ],
      "name": "shipToRetailer",
      "outputs": [],
      "payable": false,
      "stateMutability": "nonpayable",
      "type": "function"
    },
    {
      "constant": false,
      "inputs": [
        {
          "internalType": "uint256",
          "name": "_uid",
          "type": "uint256"
        },
        {
          "internalType": "string",
          "name": "retailerLongitude",
          "type": "string"
        },
        {
          "internalType": "string",
          "name": "retailerLatitude",
          "type": "string"
        }
      ],
      "name": "receiveByRetailer",
      "outputs": [],
      "payable": false,
      "stateMutability": "nonpayable",
      "type": "function"
    },
    {
      "constant": false,
      "inputs": [
        {
          "internalType": "uint256",
          "name": "_uid",
          "type": "uint256"
        }
      ],
      "name": "purchaseByCustomer",
      "outputs": [],
      "payable": false,
      "stateMutability": "nonpayable",
      "type": "function"
    },
    {
      "constant": false,
      "inputs": [
        {
          "internalType": "uint256",
          "name": "_uid",
          "type": "uint256"
        }
      ],
      "name": "shipByRetailer",
      "outputs": [],
      "payable": false,
      "stateMutability": "nonpayable",
      "type": "function"
    },
    {
      "constant": false,
      "inputs": [
        {
          "internalType": "uint256",
          "name": "_uid",
          "type": "uint256"
        },
        {
          "internalType": "string",
          "name": "hubLongitude",
          "type": "string"
        },
        {
          "internalType": "string",
          "name": "hubLatitude",
          "type": "string"
        }
      ],
      "name": "receiveByDistributionHub",
      "outputs": [],
      "payable": false,
      "stateMutability": "nonpayable",
      "type": "function"
    },
    {
      "constant": false,
      "inputs": [
        {
          "internalType": "uint256",
          "name": "_uid",
          "type": "uint256"
        }
      ],
      "name": "shipByDistributionHub",
      "outputs": [],
      "payable": false,
      "stateMutability": "nonpayable",
      "type": "function"
    },
    {
      "constant": false,
      "inputs": [
        {
          "internalType": "uint256",
          "name": "_uid",
          "type": "uint256"
        }
      ],
      "name": "receiveByCustomer",
      "outputs": [],
      "payable": false,
      "stateMutability": "nonpayable",
      "type": "function"
    },
    {
      "constant": true,
      "inputs": [
        {
          "internalType": "uint256",
          "name": "_uid",
          "type": "uint256"
        },
        {
          "internalType": "string",
          "name": "_type",
          "type": "string"
        },
        {
          "internalType": "uint256",
          "name": "i",
          "type": "uint256"
        }
      ],
      "name": "getBasicProductDetails",
      "outputs": [
        {
          "internalType": "uint256",
          "name": "",
          "type": "uint256"
        },
        {
          "internalType": "uint256",
          "name": "",
          "type": "uint256"
        },
        {
          "internalType": "address",
          "name": "",
          "type": "address"
        },
        {
          "internalType": "address",
          "name": "",
          "type": "address"
        },
        {
          "internalType": "string",
          "name": "",
          "type": "string"
        },
        {
          "internalType": "string",
          "name": "",
          "type": "string"
        },
        {
          "internalType": "string",
          "name": "",
          "type": "string"
        },
        {
          "internalType": "string",
          "name": "",
          "type": "string"
        }
      ],
      "payable": false,
      "stateMutability": "view",
      "type": "function"
    },
    {
      "constant": true,
      "inputs": [
        {
          "internalType": "uint256",
          "name": "_uid",
          "type": "uint256"
        },
        {
          "internalType": "string",
          "name": "_type",
          "type": "string"
        },
        {
          "internalType": "uint256",
          "name": "i",
          "type": "uint256"
        }
      ],
      "name": "getAdditionalProductDetails",
      "outputs": [
        {
          "internalType": "uint256",
          "name": "",
          "type": "uint256"
        },
        {
          "internalType": "string",
          "name": "",
          "type": "string"
        },
        {
          "internalType": "uint256",
          "name": "",
          "type": "uint256"
        },
        {
          "internalType": "uint256",
          "name": "",
          "type": "uint256"
        },
        {
          "internalType": "string",
          "name": "",
          "type": "string"
        },
        {
          "internalType": "enum ChainData.State",
          "name": "",
          "type": "uint8"
        },
        {
          "internalType": "address",
          "name": "",
          "type": "address"
        },
        {
          "internalType": "string",
          "name": "",
          "type": "string"
        },
        {
          "internalType": "string",
          "name": "",
          "type": "string"
        }
      ],
      "payable": false,
      "stateMutability": "view",
      "type": "function"
    },
    {
      "constant": true,
      "inputs": [
        {
          "internalType": "uint256",
          "name": "_uid",
          "type": "uint256"
        },
        {
          "internalType": "string",
          "name": "_type",
          "type": "string"
        },
        {
          "internalType": "uint256",
          "name": "i",
          "type": "uint256"
        }
      ],
      "name": "getRetailerDistributionDetails",
      "outputs": [
        {
          "internalType": "string",
          "name": "",
          "type": "string"
        },
        {
          "internalType": "address",
          "name": "",
          "type": "address"
        },
        {
          "internalType": "string",
          "name": "",
          "type": "string"
        },
        {
          "internalType": "string",
          "name": "",
          "type": "string"
        },
        {
          "internalType": "address",
          "name": "",
          "type": "address"
        },
        {
          "internalType": "string",
          "name": "",
          "type": "string"
        }
      ],
      "payable": false,
      "stateMutability": "view",
      "type": "function"
    },
    {
      "constant": true,
      "inputs": [],
      "name": "getProductCount",
      "outputs": [
        {
          "internalType": "uint256",
          "name": "",
          "type": "uint256"
        }
      ],
      "payable": false,
      "stateMutability": "view",
      "type": "function"
    },
    {
      "constant": true,
      "inputs": [
        {
          "internalType": "uint256",
          "name": "_uid",
          "type": "uint256"
        }
      ],
      "name": "getProductHistoryLength",
      "outputs": [
        {
          "internalType": "uint256",
          "name": "",
          "type": "uint256"
        }
      ],
      "payable": false,
      "stateMutability": "view",
      "type": "function"
    },
    {
      "constant": true,
      "inputs": [
        {
          "internalType": "uint256",
          "name": "_uid",
          "type": "uint256"
        }
      ],
      "name": "getProductState",
      "outputs": [
        {
          "internalType": "enum ChainData.State",
          "name": "",
          "type": "uint8"
        }
      ],
      "payable": false,
      "stateMutability": "view",
      "type": "function"
    },
    {
      "constant": false,
      "inputs": [
        {
          "internalType": "string",
          "name": "transaction",
          "type": "string"
        }
      ],
      "name": "setTransactionHashOnManufacture",
      "outputs": [],
      "payable": false,
      "stateMutability": "nonpayable",
      "type": "function"
    },
    {
      "constant": false,
      "inputs": [
        {
          "internalType": "uint256",
          "name": "_uid",
          "type": "uint256"
        },
        {
          "internalType": "string",
          "name": "transaction",
          "type": "string"
        }
      ],
      "name": "setTransactionHash",
      "outputs": [],
      "payable": false,
      "stateMutability": "nonpayable",
      "type": "function"
    }
  ],
  "bytecode": "0x6080604052600080546001600160a01b031916331790556001600281905580556146a98061002e6000396000f3fe608060405234801561001057600080fd5b50600436106101a95760003560e01c806372df397e116100f9578063d9b6f25611610097578063ef8da2aa11610071578063ef8da2aa14610ff9578063f514ce361461101f578063fb065a8d14611027578063fc871dbd1461104d576101a9565b8063d9b6f25614610f30578063e55128ea14610f4d578063eefb95d714610ff1576101a9565b80638290f859116100d35780638290f85914610b1d578063a2c1067214610b43578063c21e3f3a14610dda578063c8a68a2a14610e00576101a9565b806372df397e14610712578063786ea1611461072f5780637be34bc5146107da576101a9565b80632fb32c2b116101665780634a348da9116101405780634a348da91461042d5780636000ada1146104355780636aef62721461045b5780637217eb2e146106f5576101a9565b80632fb32c2b146103b2578063350fe57b146103e1578063453dd4af14610407576101a9565b8063024edf9a146101ae57806306ca031e146101e857806312bb716d1461031a57806321161f271461035b57806327491e73146103785780632acd8ae114610395575b600080fd5b6101d4600480360360208110156101c457600080fd5b50356001600160a01b03166112d6565b604080519115158252519081900360200190f35b610318600480360360608110156101fe57600080fd5b81359190810190604081016020820135600160201b81111561021f57600080fd5b82018360208201111561023157600080fd5b803590602001918460018302840111600160201b8311171561025257600080fd5b91908080601f0160208091040260200160405190810160405280939291908181526020018383808284376000920191909152509295949360208101935035915050600160201b8111156102a457600080fd5b8201836020820111156102b657600080fd5b803590602001918460018302840111600160201b831117156102d757600080fd5b91908080601f016020809104026020016040519081016040528093929190818152602001838380828437600092019190915250929550611311945050505050565b005b6103376004803603602081101561033057600080fd5b5035611710565b6040518082600881111561034757fe5b60ff16815260200191505060405180910390f35b6103186004803603602081101561037157600080fd5b5035611728565b6103186004803603602081101561038e57600080fd5b5035611b03565b610318600480360360208110156103ab57600080fd5b5035611eae565b6103cf600480360360208110156103c857600080fd5b503561223c565b60408051918252519081900360200190f35b6101d4600480360360208110156103f757600080fd5b50356001600160a01b031661224e565b6103186004803603602081101561041d57600080fd5b50356001600160a01b0316612287565b6103cf6122d7565b6101d46004803603602081101561044b57600080fd5b50356001600160a01b03166122de565b6105086004803603606081101561047157600080fd5b81359190810190604081016020820135600160201b81111561049257600080fd5b8201836020820111156104a457600080fd5b803590602001918460018302840111600160201b831117156104c557600080fd5b91908080601f0160208091040260200160405190810160405280939291908181526020018383808284376000920191909152509295505091359250612312915050565b604051808a8152602001806020018981526020018881526020018060200187600881111561053257fe5b60ff168152602001866001600160a01b03166001600160a01b03168152602001806020018060200185810385528d818151815260200191508051906020019080838360005b8381101561058f578181015183820152602001610577565b50505050905090810190601f1680156105bc5780820380516001836020036101000a031916815260200191505b5085810384528a5181528a516020918201918c019080838360005b838110156105ef5781810151838201526020016105d7565b50505050905090810190601f16801561061c5780820380516001836020036101000a031916815260200191505b50858103835287518152875160209182019189019080838360005b8381101561064f578181015183820152602001610637565b50505050905090810190601f16801561067c5780820380516001836020036101000a031916815260200191505b50858103825286518152865160209182019188019080838360005b838110156106af578181015183820152602001610697565b50505050905090810190601f1680156106dc5780820380516001836020036101000a031916815260200191505b509d505050505050505050505050505060405180910390f35b6103186004803603602081101561070b57600080fd5b50356126c4565b6103186004803603602081101561072857600080fd5b5035612a58565b6103186004803603604081101561074557600080fd5b81359190810190604081016020820135600160201b81111561076657600080fd5b82018360208201111561077857600080fd5b803590602001918460018302840111600160201b8311171561079957600080fd5b91908080601f016020809104026020016040519081016040528093929190818152602001838380828437600092019190915250929550612e16945050505050565b61031860048036036101008110156107f157600080fd5b810190602081018135600160201b81111561080b57600080fd5b82018360208201111561081d57600080fd5b803590602001918460018302840111600160201b8311171561083e57600080fd5b91908080601f0160208091040260200160405190810160405280939291908181526020018383808284376000920191909152509295949360208101935035915050600160201b81111561089057600080fd5b8201836020820111156108a257600080fd5b803590602001918460018302840111600160201b831117156108c357600080fd5b91908080601f0160208091040260200160405190810160405280939291908181526020018383808284376000920191909152509295949360208101935035915050600160201b81111561091557600080fd5b82018360208201111561092757600080fd5b803590602001918460018302840111600160201b8311171561094857600080fd5b91908080601f0160208091040260200160405190810160405280939291908181526020018383808284376000920191909152509295949360208101935035915050600160201b81111561099a57600080fd5b8201836020820111156109ac57600080fd5b803590602001918460018302840111600160201b831117156109cd57600080fd5b91908080601f0160208091040260200160405190810160405280939291908181526020018383808284376000920191909152509295949360208101935035915050600160201b811115610a1f57600080fd5b820183602082011115610a3157600080fd5b803590602001918460018302840111600160201b83111715610a5257600080fd5b91908080601f0160208091040260200160405190810160405280939291908181526020018383808284376000920191909152509295949360208101935035915050600160201b811115610aa457600080fd5b820183602082011115610ab657600080fd5b803590602001918460018302840111600160201b83111715610ad757600080fd5b91908080601f0160208091040260200160405190810160405280939291908181526020018383808284376000920191909152509295505082359350505060200135612e62565b61031860048036036020811015610b3357600080fd5b50356001600160a01b03166133e6565b610bf060048036036060811015610b5957600080fd5b81359190810190604081016020820135600160201b811115610b7a57600080fd5b820183602082011115610b8c57600080fd5b803590602001918460018302840111600160201b83111715610bad57600080fd5b91908080601f0160208091040260200160405190810160405280939291908181526020018383808284376000920191909152509295505091359250613430915050565b60405180898152602001888152602001876001600160a01b03166001600160a01b03168152602001866001600160a01b03166001600160a01b0316815260200180602001806020018060200180602001858103855289818151815260200191508051906020019080838360005b83811015610c75578181015183820152602001610c5d565b50505050905090810190601f168015610ca25780820380516001836020036101000a031916815260200191505b5085810384528851815288516020918201918a019080838360005b83811015610cd5578181015183820152602001610cbd565b50505050905090810190601f168015610d025780820380516001836020036101000a031916815260200191505b50858103835287518152875160209182019189019080838360005b83811015610d35578181015183820152602001610d1d565b50505050905090810190601f168015610d625780820380516001836020036101000a031916815260200191505b50858103825286518152865160209182019188019080838360005b83811015610d95578181015183820152602001610d7d565b50505050905090810190601f168015610dc25780820380516001836020036101000a031916815260200191505b509c5050505050505050505050505060405180910390f35b61031860048036036020811015610df057600080fd5b50356001600160a01b03166137cb565b61031860048036036060811015610e1657600080fd5b81359190810190604081016020820135600160201b811115610e3757600080fd5b820183602082011115610e4957600080fd5b803590602001918460018302840111600160201b83111715610e6a57600080fd5b91908080601f0160208091040260200160405190810160405280939291908181526020018383808284376000920191909152509295949360208101935035915050600160201b811115610ebc57600080fd5b820183602082011115610ece57600080fd5b803590602001918460018302840111600160201b83111715610eef57600080fd5b91908080601f016020809104026020016040519081016040528093929190818152602001838380828437600092019190915250929550613819945050505050565b61031860048036036020811015610f4657600080fd5b5035613c17565b61031860048036036020811015610f6357600080fd5b810190602081018135600160201b811115610f7d57600080fd5b820183602082011115610f8f57600080fd5b803590602001918460018302840111600160201b83111715610fb057600080fd5b91908080601f016020809104026020016040519081016040528093929190818152602001838380828437600092019190915250929550613f9e945050505050565b6103cf613fec565b6103186004803603602081101561100f57600080fd5b50356001600160a01b0316613ff2565b6103cf61403e565b6101d46004803603602081101561103d57600080fd5b50356001600160a01b0316614044565b6110fa6004803603606081101561106357600080fd5b81359190810190604081016020820135600160201b81111561108457600080fd5b82018360208201111561109657600080fd5b803590602001918460018302840111600160201b831117156110b757600080fd5b91908080601f016020809104026020016040519081016040528093929190818152602001838380828437600092019190915250929550509135925061407e915050565b6040518080602001876001600160a01b03166001600160a01b031681526020018060200180602001866001600160a01b03166001600160a01b031681526020018060200185810385528b818151815260200191508051906020019080838360005b8381101561117357818101518382015260200161115b565b50505050905090810190601f1680156111a05780820380516001836020036101000a031916815260200191505b5085810384528951815289516020918201918b019080838360005b838110156111d35781810151838201526020016111bb565b50505050905090810190601f1680156112005780820380516001836020036101000a031916815260200191505b5085810383528851815288516020918201918a019080838360005b8381101561123357818101518382015260200161121b565b50505050905090810190601f1680156112605780820380516001836020036101000a031916815260200191505b50858103825286518152865160209182019188019080838360005b8381101561129357818101518382015260200161127b565b50505050905090810190601f1680156112c05780820380516001836020036101000a031916815260200191505b509a505050505050505050505060405180910390f35b60006001600160a01b0382166112eb57600080fd5b506001600160a01b03166000908152600560205260409020546301000000900460ff1690565b82600560008281526003602052604090206005015460ff16600881111561133457fe5b1461133e57600080fd5b61134733614044565b61135057600080fd5b6000848152600360209081526040909120600281018054336001600160a01b031991821681179092556013830180549091169091179055845161139b9260149092019186019061446d565b50600084815260036020908152604090912083516113c19260159092019185019061446d565b50600084815260036020818152604080842060058101805460ff19166006179055600480845291852084845280546001818101808455928852949096208254601690970201958655838201548685015560028083015481880180546001600160a01b039283166001600160a01b03199182161790915584880154978901805498909216971696909617909555828201805491969295929461147794860193919261010091811615919091026000190116046144eb565b50600582810154908201805460ff9092169160ff1916600183600881111561149b57fe5b02179055506006828101805491830180546001600160a01b0319166001600160a01b03909316929092178255600780850180549293926114f19286019190600260001960018316156101000201909116046144eb565b50600282810180546115169284810192916000196101006001831615020116046144eb565b506003820181600301908054600181600116156101000203166002900461153e9291906144eb565b50600482018160040190805460018160011615610100020316600290046115669291906144eb565b50600591820154910155600c828101805491830180546001600160a01b0319166001600160a01b03909316929092178255600d80850180549293926115c19286019190600260001960018316156101000201909116046144eb565b50600282810180546115e69284810192916000196101006001831615020116046144eb565b505050600f820181600f0160008201548160000155600182018160010190805460018160011615610100020316600290046116229291906144eb565b5060028201548160020155600382018160030190805460018160011615610100020316600290046116549291906144eb565b5050506013828101805491830180546001600160a01b0319166001600160a01b03909316929092178255601480850180549293926116a89286019190600260001960018316156101000201909116046144eb565b50600282810180546116cd9284810192916000196101006001831615020116046144eb565b505060015460408051918252517fc0016be4cb0f515e62a8fb7b59d7f79c8a2942281df4212980b05990432d0b6b9550908190036020019350915050a150505050565b60009081526003602052604090206005015460ff1690565b80600660008281526003602052604090206005015460ff16600881111561174b57fe5b1461175557600080fd5b6000828152600360205260409020600201546001600160a01b031633811461177c57600080fd5b6000838152600360205260409020601301546001600160a01b03163381146117a357600080fd5b6117ac33614044565b6117b557600080fd5b600084815260036020818152604080842060058101805460ff19166007179055600480845291852084845280546001818101808455928852949096208254601690970201958655838201548685015560028083015481880180546001600160a01b039283166001600160a01b03199182161790915584880154978901805498909216971696909617909555828201805491969295929461186a94860193919261010091811615919091026000190116046144eb565b50600582810154908201805460ff9092169160ff1916600183600881111561188e57fe5b02179055506006828101805491830180546001600160a01b0319166001600160a01b03909316929092178255600780850180549293926118e49286019190600260001960018316156101000201909116046144eb565b50600282810180546119099284810192916000196101006001831615020116046144eb565b50600382018160030190805460018160011615610100020316600290046119319291906144eb565b50600482018160040190805460018160011615610100020316600290046119599291906144eb565b50600591820154910155600c828101805491830180546001600160a01b0319166001600160a01b03909316929092178255600d80850180549293926119b49286019190600260001960018316156101000201909116046144eb565b50600282810180546119d99284810192916000196101006001831615020116046144eb565b505050600f820181600f016000820154816000015560018201816001019080546001816001161561010002031660029004611a159291906144eb565b506002820154816002015560038201816003019080546001816001161561010002031660029004611a479291906144eb565b5050506013828101805491830180546001600160a01b0319166001600160a01b0390931692909217825560148085018054929392611a9b9286019190600260001960018316156101000201909116046144eb565b5060028281018054611ac09284810192916000196101006001831615020116046144eb565b505060015460408051918252517fc7fa6f5dfaf2f9e777a7e75599b9cb46dc5156109394ed2d629652301b7d21e09550908190036020019350915050a150505050565b6000818152600360205260409020600201546001600160a01b0316338114611b2a57600080fd5b6000828152600360205260409020600c01546001600160a01b0316338114611b5157600080fd5b611b5a3361224e565b611b6357600080fd5b60008381526003602081815260408084206005808201805460ff19169091179055600480845291852084845280546001818101808455928852949096208254601690970201958655838201548685015560028083015481880180546001600160a01b03199081166001600160a01b039384161790915584880154978901805490911697909116969096179095558282018054919692959294611c1794860193919290811615610100026000190116046144eb565b50600582810154908201805460ff9092169160ff19166001836008811115611c3b57fe5b02179055506006828101805491830180546001600160a01b0319166001600160a01b0390931692909217825560078085018054929392611c919286019190600260001960018316156101000201909116046144eb565b5060028281018054611cb69284810192916000196101006001831615020116046144eb565b5060038201816003019080546001816001161561010002031660029004611cde9291906144eb565b5060048201816004019080546001816001161561010002031660029004611d069291906144eb565b50600591820154910155600c828101805491830180546001600160a01b0319166001600160a01b03909316929092178255600d8085018054929392611d619286019190600260001960018316156101000201909116046144eb565b5060028281018054611d869284810192916000196101006001831615020116046144eb565b505050600f820181600f016000820154816000015560018201816001019080546001816001161561010002031660029004611dc29291906144eb565b506002820154816002015560038201816003019080546001816001161561010002031660029004611df49291906144eb565b5050506013828101805491830180546001600160a01b0319166001600160a01b0390931692909217825560148085018054929392611e489286019190600260001960018316156101000201909116046144eb565b5060028281018054611e6d9284810192916000196101006001831615020116046144eb565b505060015460408051918252517e114a6fadb43e05c82c84612f44de7a592a32426b619579ae7bb4f3815616c79550908190036020019350915050a1505050565b806000808281526003602052604090206005015460ff166008811115611ed057fe5b14611eda57600080fd5b611ee33361224e565b611eec57600080fd5b6000828152600360208181526040808420600c810180546001600160a01b0319908116331790915560058201805460ff19166001908117909155600480865293872086865280548083018083559189529590972083546016909602019485558083015485820155600280840154818701805485166001600160a01b0392831617905584880154978701805490941697169690961790915582820180549295611fa79486019391928216156101000260001901909116046144eb565b50600582810154908201805460ff9092169160ff19166001836008811115611fcb57fe5b02179055506006828101805491830180546001600160a01b0319166001600160a01b03909316929092178255600780850180549293926120219286019190600260001960018316156101000201909116046144eb565b50600282810180546120469284810192916000196101006001831615020116046144eb565b506003820181600301908054600181600116156101000203166002900461206e9291906144eb565b50600482018160040190805460018160011615610100020316600290046120969291906144eb565b50600591820154910155600c828101805491830180546001600160a01b0319166001600160a01b03909316929092178255600d80850180549293926120f19286019190600260001960018316156101000201909116046144eb565b50600282810180546121169284810192916000196101006001831615020116046144eb565b505050600f820181600f0160008201548160000155600182018160010190805460018160011615610100020316600290046121529291906144eb565b5060028201548160020155600382018160030190805460018160011615610100020316600290046121849291906144eb565b5050506013828101805491830180546001600160a01b0319166001600160a01b03909316929092178255601480850180549293926121d89286019190600260001960018316156101000201909116046144eb565b50600282810180546121fd9284810192916000196101006001831615020116046144eb565b50506040805187815290517faa7352d10146444c3afd9bd7fb0ae56b0a85e81139536bbec3f1f660fddd7be19550908190036020019350915050a15050565b60009081526004602052604090205490565b60006001600160a01b03821661226357600080fd5b506001600160a01b0316600090815260056020526040902054610100900460ff1690565b6001600160a01b03811661229a57600080fd5b6122a3816112d6565b156122ad57600080fd5b6001600160a01b03166000908152600560205260409020805463ff00000019166301000000179055565b6001545b90565b60006001600160a01b0382166122f357600080fd5b506001600160a01b031660009081526005602052604090205460ff1690565b600060606000806060600080606080600360008d8152602001908152602001600020600001546000141561234557600080fd5b60008c815260036020908152604091829020825180840190935260078352661c1c9bd91d58dd60ca1b928201929092528c51908d01207f36a4a183f82db747ab399ca476ab84cc3def6abe3ac63748d03b4584af38d05714156123b2575060008c81526003602052604090205b604080518082019091526007815266686973746f727960c81b6020918201528c51908d01207f5cb4ee416d23b95cd5367c15d6b361ec02394b3d48d629418b0e5e7eda67585814156124295760008d815260046020526040902080548c90811061241857fe5b906000526020600020906016020190505b600b810154600f82015460118301546005840154600c850154601086018054604080516020601f600260001960018716156101000201909516949094049384018190048102820181019092528281529296959460128a019460ff909116936001600160a01b0390911692600d8b0192600e8c0192918a918301828280156124f15780601f106124c6576101008083540402835291602001916124f1565b820191906000526020600020905b8154815290600101906020018083116124d457829003601f168201915b5050885460408051602060026001851615610100026000190190941693909304601f8101849004840282018401909252818152959d508a94509250840190508282801561257f5780601f106125545761010080835404028352916020019161257f565b820191906000526020600020905b81548152906001019060200180831161256257829003601f168201915b5050855460408051602060026001851615610100026000190190941693909304601f8101849004840282018401909252818152959a508794509250840190508282801561260d5780601f106125e25761010080835404028352916020019161260d565b820191906000526020600020905b8154815290600101906020018083116125f057829003601f168201915b5050845460408051602060026001851615610100026000190190941693909304601f81018490048402820184019092528181529597508694509250840190508282801561269b5780601f106126705761010080835404028352916020019161269b565b820191906000526020600020905b81548152906001019060200180831161267e57829003601f168201915b505050505090509950995099509950995099509950995099505093979b92969a50939750939750565b80600360008281526003602052604090206005015460ff1660088111156126e757fe5b146126f157600080fd5b6126fa336112d6565b61270357600080fd5b600082815260036020818152604080842080840180546001600160a01b031990811633178255600583018054600460ff19909116811790915580865293872086865280546001818101808455928a529690982084546016909902019788558584015488870155600280850154818a01805485166001600160a01b03928316179055935497890180549093169790931696909617905582820180549596929592946127c1948601939192908216156101000260001901909116046144eb565b50600582810154908201805460ff9092169160ff191660018360088111156127e557fe5b02179055506006828101805491830180546001600160a01b0319166001600160a01b039093169290921782556007808501805492939261283b9286019190600260001960018316156101000201909116046144eb565b50600282810180546128609284810192916000196101006001831615020116046144eb565b50600382018160030190805460018160011615610100020316600290046128889291906144eb565b50600482018160040190805460018160011615610100020316600290046128b09291906144eb565b50600591820154910155600c828101805491830180546001600160a01b0319166001600160a01b03909316929092178255600d808501805492939261290b9286019190600260001960018316156101000201909116046144eb565b50600282810180546129309284810192916000196101006001831615020116046144eb565b505050600f820181600f01600082015481600001556001820181600101908054600181600116156101000203166002900461296c9291906144eb565b50600282015481600201556003820181600301908054600181600116156101000203166002900461299e9291906144eb565b5050506013828101805491830180546001600160a01b0319166001600160a01b03909316929092178255601480850180549293926129f29286019190600260001960018316156101000201909116046144eb565b5060028281018054612a179284810192916000196101006001831615020116046144eb565b505060015460408051918252517ffd054e59d299873fab61a3c67d86d3a139b75dcd5cd82894d8983fc5e2669c829550908190036020019350915050a15050565b600154600760008281526003602052604090206005015460ff166008811115612a7d57fe5b14612a8757600080fd5b600082815260036020819052604090912001546001600160a01b0316338114612aaf57600080fd5b612ab8336112d6565b612ac157600080fd5b6000838152600360208181526040808420600280820180546001600160a01b031990811633178255600584018054600860ff19909116179055600480875294882087875280546001818101808455928b529790992085546016909a020198895586850154898801559154888401805483166001600160a01b039283161790558488015497890180549092169716969096179095558282018054959692959294612b7e948601939192908216156101000260001901909116046144eb565b50600582810154908201805460ff9092169160ff19166001836008811115612ba257fe5b02179055506006828101805491830180546001600160a01b0319166001600160a01b0390931692909217825560078085018054929392612bf89286019190600260001960018316156101000201909116046144eb565b5060028281018054612c1d9284810192916000196101006001831615020116046144eb565b5060038201816003019080546001816001161561010002031660029004612c459291906144eb565b5060048201816004019080546001816001161561010002031660029004612c6d9291906144eb565b50600591820154910155600c828101805491830180546001600160a01b0319166001600160a01b03909316929092178255600d8085018054929392612cc89286019190600260001960018316156101000201909116046144eb565b5060028281018054612ced9284810192916000196101006001831615020116046144eb565b505050600f820181600f016000820154816000015560018201816001019080546001816001161561010002031660029004612d299291906144eb565b506002820154816002015560038201816003019080546001816001161561010002031660029004612d5b9291906144eb565b5050506013828101805491830180546001600160a01b0319166001600160a01b0390931692909217825560148085018054929392612daf9286019190600260001960018316156101000201909116046144eb565b5060028281018054612dd49284810192916000196101006001831615020116046144eb565b505060015460408051918252517f8a746d5b91a9a334d1abbeee7d031aac6d5c59ea6e982ac06aef4346cce5749e9550908190036020019350915050a1505050565b600082815260046020526040812080546000198101908110612e3457fe5b9060005260206000209060160201905081816004019080519060200190612e5c92919061446d565b50505050565b612e6b336122de565b612e7457600080fd5b600154612e7f614560565b600154815260025460208083019190915260c0820180519091018b9052805160409081018b905281516060018a9052815160800189905281514260a0919091015233908301819052905152612ed381614405565b600060a0820152612ee7818786868961444b565b60008281526003602081815260409283902084518155818501516001820155928401516002840180546001600160a01b039283166001600160a01b031991821617909155606086015193850180549490921693169290921790915560808301518051849392612f5d92600485019291019061446d565b5060a082015160058201805460ff19166001836008811115612f7b57fe5b021790555060c082015180516006830180546001600160a01b0319166001600160a01b039092169190911781556020808301518051612fc0926007870192019061446d565b5060408201518051612fdc91600284019160209091019061446d565b5060608201518051612ff891600384019160209091019061446d565b506080820151805161301491600484019160209091019061446d565b5060a0919091015160059091015560e08201518051600c830180546001600160a01b0319166001600160a01b03909216919091178155602080830151805161306292600d870192019061446d565b506040820151805161307e91600284019160209091019061446d565b5050506101008201518051600f830190815560208083015180516130a8926010870192019061446d565b5060408201516002820155606082015180516130ce91600384019160209091019061446d565b50505061012082015180516013830180546001600160a01b0319166001600160a01b039092169190911781556020808301518051613112926014870192019061446d565b506040820151805161312e91600284019160209091019061446d565b5050506000848152600460208181526040808420805460018181018084559287529584902089516016909202019081558884015195810195909555908701516002850180546001600160a01b039283166001600160a01b0319918216179091556060890151600387018054919093169116179055608087015180519196508795506131bd93850192019061446d565b5060a082015160058201805460ff191660018360088111156131db57fe5b021790555060c082015180516006830180546001600160a01b0319166001600160a01b039092169190911781556020808301518051613220926007870192019061446d565b506040820151805161323c91600284019160209091019061446d565b506060820151805161325891600384019160209091019061446d565b506080820151805161327491600484019160209091019061446d565b5060a0919091015160059091015560e08201518051600c830180546001600160a01b0319166001600160a01b0390921691909117815560208083015180516132c292600d870192019061446d565b50604082015180516132de91600284019160209091019061446d565b5050506101008201518051600f83019081556020808301518051613308926010870192019061446d565b50604082015160028201556060820151805161332e91600384019160209091019061446d565b50505061012082015180516013830180546001600160a01b0319166001600160a01b039092169190911781556020808301518051613372926014870192019061446d565b506040820151805161338e91600284019160209091019061446d565b505060028054600190810190915580548101905550506040805185815290517fd29d8a68ca7c8c74be5579719d445aabfe230ed6e6a83aff475a663500eb76099350908190036020019150a150505050505050505050565b6001600160a01b0381166133f957600080fd5b613402816122de565b1561340c57600080fd5b6001600160a01b03166000908152600560205260409020805460ff19166001179055565b60008381526003602052604081205481908190819060609081908190819061345757600080fd5b60008b815260036020908152604091829020825180840190935260078352661c1c9bd91d58dd60ca1b928201929092528b51908c01207f36a4a183f82db747ab399ca476ab84cc3def6abe3ac63748d03b4584af38d05714156134c4575060008b81526003602052604090205b604080518082019091526007815266686973746f727960c81b6020918201528b51908c01207f5cb4ee416d23b95cd5367c15d6b361ec02394b3d48d629418b0e5e7eda675858141561353b5760008c815260046020526040902080548b90811061352a57fe5b906000526020600020906016020190505b8054600180830154600280850154600686015460078701805460408051602061010099841615999099026000190190921695909504601f810188900488028201880190955284815294956001600160a01b039384169593909216939092600889019260098a0192600a8b0192918691908301828280156135fc5780601f106135d1576101008083540402835291602001916135fc565b820191906000526020600020905b8154815290600101906020018083116135df57829003601f168201915b5050865460408051602060026001851615610100026000190190941693909304601f81018490048402820184019092528181529599508894509250840190508282801561368a5780601f1061365f5761010080835404028352916020019161368a565b820191906000526020600020905b81548152906001019060200180831161366d57829003601f168201915b5050855460408051602060026001851615610100026000190190941693909304601f8101849004840282018401909252818152959850879450925084019050828280156137185780601f106136ed57610100808354040283529160200191613718565b820191906000526020600020905b8154815290600101906020018083116136fb57829003601f168201915b5050845460408051602060026001851615610100026000190190941693909304601f8101849004840282018401909252818152959750869450925084019050828280156137a65780601f1061377b576101008083540402835291602001916137a6565b820191906000526020600020905b81548152906001019060200180831161378957829003601f168201915b5050505050905098509850985098509850985098509850509397509397509397509397565b6001600160a01b0381166137de57600080fd5b6137e781614044565b156137f157600080fd5b6001600160a01b03166000908152600560205260409020805462ff0000191662010000179055565b82600260008281526003602052604090206005015460ff16600881111561383c57fe5b1461384657600080fd5b6000848152600360205260409020600c01546001600160a01b031633811461386d57600080fd5b6138763361224e565b61387f57600080fd5b600085815260036020908152604090912085516138a492600d9092019187019061446d565b50600085815260036020908152604090912084516138ca92600e9092019186019061446d565b50600085815260036020818152604080842060058101805460ff191685179055600480845291852084845280546001818101808455928852949096208254601690970201958655838201548685015560028083015481880180546001600160a01b03199081166001600160a01b03938416179091558488015497890180549091169790911696909617909555828201805491969295929461397d94860193919290811615610100026000190116046144eb565b50600582810154908201805460ff9092169160ff191660018360088111156139a157fe5b02179055506006828101805491830180546001600160a01b0319166001600160a01b03909316929092178255600780850180549293926139f79286019190600260001960018316156101000201909116046144eb565b5060028281018054613a1c9284810192916000196101006001831615020116046144eb565b5060038201816003019080546001816001161561010002031660029004613a449291906144eb565b5060048201816004019080546001816001161561010002031660029004613a6c9291906144eb565b50600591820154910155600c828101805491830180546001600160a01b0319166001600160a01b03909316929092178255600d8085018054929392613ac79286019190600260001960018316156101000201909116046144eb565b5060028281018054613aec9284810192916000196101006001831615020116046144eb565b505050600f820181600f016000820154816000015560018201816001019080546001816001161561010002031660029004613b289291906144eb565b506002820154816002015560038201816003019080546001816001161561010002031660029004613b5a9291906144eb565b5050506013828101805491830180546001600160a01b0319166001600160a01b0390931692909217825560148085018054929392613bae9286019190600260001960018316156101000201909116046144eb565b5060028281018054613bd39284810192916000196101006001831615020116046144eb565b505060015460408051918252517f322f34e90f2269750b3e28178631d975cc678db36f21098fe548b7f755ce0bd09550908190036020019350915050a15050505050565b6000818152600360205260409020600601546001600160a01b0316338114613c3e57600080fd5b613c47336122de565b613c5057600080fd5b6000828152600360208181526040808420600581018054600260ff19909116811790915560048085529286208585528054600181810180845592895295909720835460169098020196875584830154878601558183015487830180546001600160a01b03199081166001600160a01b039384161790915584880154978901805490911697909116969096179095558282018054959692959294613d07948601939192908216156101000260001901909116046144eb565b50600582810154908201805460ff9092169160ff19166001836008811115613d2b57fe5b02179055506006828101805491830180546001600160a01b0319166001600160a01b0390931692909217825560078085018054929392613d819286019190600260001960018316156101000201909116046144eb565b5060028281018054613da69284810192916000196101006001831615020116046144eb565b5060038201816003019080546001816001161561010002031660029004613dce9291906144eb565b5060048201816004019080546001816001161561010002031660029004613df69291906144eb565b50600591820154910155600c828101805491830180546001600160a01b0319166001600160a01b03909316929092178255600d8085018054929392613e519286019190600260001960018316156101000201909116046144eb565b5060028281018054613e769284810192916000196101006001831615020116046144eb565b505050600f820181600f016000820154816000015560018201816001019080546001816001161561010002031660029004613eb29291906144eb565b506002820154816002015560038201816003019080546001816001161561010002031660029004613ee49291906144eb565b5050506013828101805491830180546001600160a01b0319166001600160a01b0390931692909217825560148085018054929392613f389286019190600260001960018316156101000201909116046144eb565b5060028281018054613f5d9284810192916000196101006001831615020116046144eb565b505060015460408051918252517f25727bef8a186dd95a062151451f2d651551b53124c18208d7653b1217ae31ba9550908190036020019350915050a15050565b6001546000199081016000908152600460205260409020805483928101908110613fc457fe5b90600052602060002090601602016004019080519060200190613fe892919061446d565b5050565b60025481565b6001600160a01b03811661400557600080fd5b61400e8161224e565b1561401857600080fd5b6001600160a01b03166000908152600560205260409020805461ff001916610100179055565b60015481565b60006001600160a01b03821661405957600080fd5b506001600160a01b031660009081526005602052604090205462010000900460ff1690565b6000838152600360205260408120546060919082908190839082906140a257600080fd5b600089815260036020908152604091829020825180840190935260078352661c1c9bd91d58dd60ca1b928201929092528951908a01207f36a4a183f82db747ab399ca476ab84cc3def6abe3ac63748d03b4584af38d057141561410f575060008981526003602052604090205b604080518082019091526007815266686973746f727960c81b6020918201528951908a01207f5cb4ee416d23b95cd5367c15d6b361ec02394b3d48d629418b0e5e7eda67585814156141865760008a815260046020526040902080548990811061417557fe5b906000526020600020906016020190505b60138101546003820154600e8301805460408051602060026101006001861615026000190190941693909304601f810184900484028201840190925281815292946001600160a01b0390811694601488019460158901949290911692600489019288919083018282801561423b5780601f106142105761010080835404028352916020019161423b565b820191906000526020600020905b81548152906001019060200180831161421e57829003601f168201915b5050875460408051602060026001851615610100026000190190941693909304601f8101849004840282018401909252818152959b50899450925084019050828280156142c95780601f1061429e576101008083540402835291602001916142c9565b820191906000526020600020905b8154815290600101906020018083116142ac57829003601f168201915b5050865460408051602060026001851615610100026000190190941693909304601f8101849004840282018401909252818152959950889450925084019050828280156143575780601f1061432c57610100808354040283529160200191614357565b820191906000526020600020905b81548152906001019060200180831161433a57829003601f168201915b5050845460408051602060026001851615610100026000190190941693909304601f8101849004840282018401909252818152959850869450925084019050828280156143e55780601f106143ba576101008083540402835291602001916143e5565b820191906000526020600020905b8154815290600101906020018083116143c857829003601f168201915b505050505090509650965096509650965096505093975093979195509350565b60e0810180516000908190528151606060209182018190529251604090810184905261012085018051849052805190920184905290510182905282820152608090910152565b6101009094018051602001939093528251919091528151604001525160600152565b828054600181600116156101000203166002900490600052602060002090601f016020900481019282601f106144ae57805160ff19168380011785556144db565b828001600101855582156144db579182015b828111156144db5782518255916020019190600101906144c0565b506144e79291506145c9565b5090565b828054600181600116156101000203166002900490600052602060002090601f016020900481019282601f1061452457805485556144db565b828001600101855582156144db57600052602060002091601f016020900482015b828111156144db578254825591600101919060010190614545565b6040805161014081018252600080825260208201819052918101829052606080820183905260808201529060a0820190815260200161459d6145e3565b81526020016145aa614622565b81526020016145b761464c565b81526020016145c4614622565b905290565b6122db91905b808211156144e757600081556001016145cf565b6040518060c0016040528060006001600160a01b0316815260200160608152602001606081526020016060815260200160608152602001600081525090565b604051806060016040528060006001600160a01b0316815260200160608152602001606081525090565b604051806080016040528060008152602001606081526020016000815260200160608152509056fea265627a7a723158208e3f7bf15415052d80ce493a89ce8ff859aa16c57c37838f69c5fcaa7bd892df64736f6c63430005100032",
  "source": "// SPDX-License-Identifier: MIT\npragma solidity >=0.4.21 <0.9.0;\n\nimport \"./ChainData.sol\";\n\ncontract SupplyChain {\n    event ManufacturerAdded(address indexed _account);\n\n    address owner;\n    // product id\n    uint256 public uid;\n    uint256 public stockKeepingUnit;\n\n    // assign an id for each product stored in the structure\n    mapping(uint256 => ChainData.Product) products;\n    mapping(uint256 => ChainData.ProductHistory) productHistory;\n\n    // assign an Ethereum address representing an actor in the supply chain\n    mapping(address => ChainData.Roles) roles;\n\n    function hasManufacturerRole(address _account) public view returns (bool) {\n        require((_account != address(0)));\n        return roles[_account].Manufacturer; // true if the Role instance of account is a Manufacturer\n    }\n\n    function addManufacturerRole(address _account) public {\n        require((_account != address(0)));\n        require(!hasManufacturerRole(_account));\n        roles[_account].Manufacturer = true;\n    }\n\n    function hasRetailerRole(address _account) public view returns (bool) {\n        require((_account != address(0)));\n        return roles[_account].Retailer;\n    }\n\n    function addRetailerRole(address _account) public {\n        require((_account != address(0)));\n        require(!hasRetailerRole(_account));\n        roles[_account].Retailer = true;\n    }\n\n    function hasDistributionHubRole(\n        address _account\n    ) public view returns (bool) {\n        require((_account != address(0)));\n        return roles[_account].DistributionHub;\n    }\n\n    function addDistributionHubRole(address _account) public {\n        require((_account != address(0)));\n        require(!hasDistributionHubRole(_account));\n        roles[_account].DistributionHub = true;\n    }\n\n    function hasCustomerRole(address _account) public view returns (bool) {\n        require((_account != address(0)));\n        return roles[_account].Customer;\n    }\n\n    function addCustomerRole(address _account) public {\n        require((_account != address(0)));\n        require(!hasCustomerRole(_account));\n        roles[_account].Customer = true;\n    }\n\n    constructor() public payable {\n        owner = msg.sender;\n        stockKeepingUnit = 1;\n        uid = 1;\n    }\n\n    event Manufactured(uint256 uid);\n    event PurchasedByRetailer(uint256 uid);\n    event ShippedByManufacturer(uint256 uid);\n    event ReceivedByRetailer(uint256 uid);\n    event PurchasedByCustomer(uint256 uid);\n    event ShippedByRetailer(uint256 uid);\n    event ReceivedByDistributionHub(uint256 uid);\n    event ShippedByDistributionHub(uint256 uid);\n    event ReceivedByCustomer(uint256 uid);\n\n    modifier verifyAddress(address account) {\n        require(msg.sender == account);\n        _;\n    }\n\n    modifier manufactured(uint256 _uid) {\n        require(products[_uid].productState == ChainData.State.Manufactured);\n        _;\n    }\n\n    modifier shippedByManufacturer(uint256 _uid) {\n        require(\n            products[_uid].productState == ChainData.State.ShippedByManufacturer\n        );\n        _;\n    }\n\n    modifier receivedByRetailer(uint256 _uid) {\n        require(\n            products[_uid].productState == ChainData.State.ReceivedByRetailer\n        );\n        _;\n    }\n\n    modifier purchasedByCustomer(uint256 _uid) {\n        require(\n            products[_uid].productState == ChainData.State.PurchasedByCustomer\n        );\n        _;\n    }\n\n    modifier shippedByRetailer(uint256 _uid) {\n        require(\n            products[_uid].productState == ChainData.State.ShippedByRetailer\n        );\n        _;\n    }\n\n    modifier receivedByDistributionHub(uint256 _uid) {\n        require(\n            products[_uid].productState ==\n                ChainData.State.ReceivedByDistributionHub\n        );\n        _;\n    }\n\n    modifier shippedByDistributionHub(uint256 _uid) {\n        require(\n            products[_uid].productState ==\n                ChainData.State.ShippedByDistributionHub\n        );\n        _;\n    }\n\n    modifier receivedByCustomer(uint256 _uid) {\n        require(\n            products[_uid].productState == ChainData.State.ReceivedByCustomer\n        );\n        _;\n    }\n\n    function initialiseBaseProductDetails(\n        ChainData.Product memory product\n    ) internal pure {\n        address retailer;\n        string memory transaction;\n        string memory retailerLongitude;\n        string memory retailerLatitude;\n\n        address distributionHub;\n        string memory distributionHubLongitude;\n        string memory distributionHubLatitude;\n        address customer;\n\n        product.retailer.retailer = retailer;\n        product.retailer.retailerLongitude = retailerLongitude;\n        product.retailer.retailerLatitude = retailerLatitude;\n\n        product.distributionHub.distributionHub = distributionHub;\n        product.distributionHub.hubLongitude = distributionHubLongitude;\n        product.distributionHub.hubLatitude = distributionHubLatitude;\n\n        product.customer = customer;\n        product.transaction = transaction;\n    }\n\n    function initialiseProductDetails(\n        ChainData.Product memory product,\n        string memory productName,\n        uint256 productCode,\n        uint256 productPrice,\n        string memory productCategory\n    ) internal pure {\n        product.details.productName = productName;\n        product.details.productCode = productCode;\n        product.details.productPrice = productPrice;\n        product.details.productCategory = productCategory;\n    }\n\n    // Supply chain processes\n    // Step 1: Product manufacturing\n\n    function manufactureProduct(\n        string memory manufacturerName,\n        string memory manufactureDetails,\n        string memory manufactureLongitude,\n        string memory manufactureLatitude,\n        string memory productName,\n        string memory productCategory,\n        uint256 productCode,\n        uint256 productPrice\n    ) public {\n        require(hasManufacturerRole(msg.sender));\n        uint256 _uid = uid;\n\n        ChainData.Product memory product;\n        product.uid = uid;\n        product.stockKeepingUnit = stockKeepingUnit;\n        product.manufacturer.manufacturerName = manufacturerName;\n        product.manufacturer.manufacturerDetails = manufactureDetails;\n        product.manufacturer.factoryLongitude = manufactureLongitude;\n        product.manufacturer.factoryLatitude = manufactureLatitude;\n        product.manufacturer.manufacturedDate = block.timestamp;\n\n        product.owner = msg.sender;\n        product.manufacturer.manufacturer = msg.sender;\n        initialiseBaseProductDetails(product);\n        product.productState = ChainData.State.Manufactured;\n\n        initialiseProductDetails(\n            product,\n            productName,\n            productCode,\n            productPrice,\n            productCategory\n        );\n\n        products[_uid] = product;\n        productHistory[_uid].history.push(product);\n\n        stockKeepingUnit++;\n        uid = uid + 1;\n        emit Manufactured((_uid));\n    }\n\n    // Step 2: Retailer purchase the product from the Manufacturer\n    function purchaseByRetailer(uint256 _uid) public manufactured(_uid) {\n        require(hasRetailerRole(msg.sender));\n        products[_uid].retailer.retailer = msg.sender;\n        products[_uid].productState = ChainData.State.PurchasedByRetailer;\n\n        productHistory[_uid].history.push(products[_uid]);\n        emit PurchasedByRetailer(_uid);\n    }\n\n    // Step 3: Product shipping to Retailer\n    function shipToRetailer(\n        uint256 _uid\n    ) public verifyAddress(products[_uid].manufacturer.manufacturer) {\n        require(hasManufacturerRole(msg.sender));\n        products[_uid].productState = ChainData.State.ShippedByManufacturer;\n\n        productHistory[_uid].history.push(products[_uid]);\n        emit ShippedByManufacturer(uid);\n    }\n\n    // Step 4: Retailer receives the product shipped by Manufacturer\n    function receiveByRetailer(\n        uint256 _uid,\n        string memory retailerLongitude,\n        string memory retailerLatitude\n    )\n        public\n        shippedByManufacturer(_uid)\n        verifyAddress(products[_uid].retailer.retailer)\n    {\n        require(hasRetailerRole(msg.sender));\n        products[_uid].retailer.retailerLongitude = retailerLongitude;\n        products[_uid].retailer.retailerLatitude = retailerLatitude;\n        products[_uid].productState = ChainData.State.ReceivedByRetailer;\n\n        productHistory[_uid].history.push(products[_uid]);\n        emit ReceivedByRetailer(uid);\n    }\n\n    // Step 5: Customer purchases a product from the Retailer\n    function purchaseByCustomer(uint256 _uid) public receivedByRetailer(_uid) {\n        require(hasCustomerRole(msg.sender));\n        products[_uid].customer = msg.sender;\n        products[_uid].productState = ChainData.State.PurchasedByCustomer;\n\n        productHistory[_uid].history.push(products[_uid]);\n        emit PurchasedByCustomer(uid);\n    }\n\n    // Step 6: Product shipping to Customer via Distribution Hub by Retailer\n    function shipByRetailer(\n        uint256 _uid\n    )\n        public\n        verifyAddress(products[_uid].owner)\n        verifyAddress(products[_uid].retailer.retailer)\n    {\n        require(hasRetailerRole(msg.sender));\n        products[_uid].productState = ChainData.State.ShippedByRetailer;\n\n        productHistory[_uid].history.push(products[_uid]);\n        emit ShippedByRetailer(uid);\n    }\n\n    // Step 7: Distribution Hub received product from Retailer and will deliver it to Customer\n    function receiveByDistributionHub(\n        uint256 _uid,\n        string memory hubLongitude,\n        string memory hubLatitude\n    ) public shippedByRetailer(_uid) {\n        require(hasDistributionHubRole(msg.sender));\n        products[_uid].owner = msg.sender;\n        products[_uid].distributionHub.distributionHub = msg.sender;\n        products[_uid].distributionHub.hubLongitude = hubLongitude;\n        products[_uid].distributionHub.hubLatitude = hubLatitude;\n        products[_uid].productState = ChainData.State.ReceivedByDistributionHub;\n\n        productHistory[_uid].history.push(products[_uid]);\n        emit ReceivedByDistributionHub(uid);\n    }\n\n    // Step 8: Product shipping to Customer\n    function shipByDistributionHub(\n        uint256 _uid\n    )\n        public\n        receivedByDistributionHub(_uid)\n        verifyAddress(products[_uid].owner)\n        verifyAddress(products[_uid].distributionHub.distributionHub)\n    {\n        require(hasDistributionHubRole(msg.sender));\n        products[_uid].productState = ChainData.State.ShippedByDistributionHub;\n\n        productHistory[_uid].history.push(products[_uid]);\n        emit ShippedByDistributionHub(uid);\n    }\n\n    // Step 9: Customer receives the product\n    function receiveByCustomer(\n        uint256 _uid\n    )\n        public\n        shippedByDistributionHub(uid)\n        verifyAddress(products[_uid].customer)\n    {\n        require(hasCustomerRole(msg.sender));\n        products[_uid].owner = msg.sender;\n        products[_uid].productState = ChainData.State.ReceivedByCustomer;\n\n        productHistory[_uid].history.push(products[_uid]);\n        emit ReceivedByCustomer(uid);\n    }\n\n    // Get basic product details (sku, owner, manufacturer details)\n    function getBasicProductDetails(\n        uint256 _uid,\n        string memory _type,\n        uint256 i\n    )\n        public\n        view\n        returns (\n            uint256,\n            uint256,\n            address,\n            address,\n            string memory,\n            string memory,\n            string memory,\n            string memory\n        )\n    {\n        require(products[_uid].uid != 0);\n        // product data will be persisted in the contract's storage for further use (stored permanently in the blockchain)\n        ChainData.Product storage product = products[_uid];\n\n        // checks the _type parameter is equal to \"product\" by comparing their keccak256 hashes (used for data encryption & security)\n        if (keccak256(bytes(_type)) == keccak256(bytes(\"product\"))) {\n            product = products[_uid];\n        }\n\n        if (keccak256(bytes(_type)) == keccak256(bytes(\"history\"))) {\n            product = productHistory[_uid].history[i];\n        }\n\n        return (\n            product.uid,\n            product.stockKeepingUnit,\n            product.owner,\n            product.manufacturer.manufacturer,\n            product.manufacturer.manufacturerName,\n            product.manufacturer.manufacturerDetails,\n            product.manufacturer.factoryLongitude,\n            product.manufacturer.factoryLatitude\n        );\n    }\n\n    // Get additional product details and retailer info\n    function getAdditionalProductDetails(\n        uint256 _uid,\n        string memory _type,\n        uint256 i\n    )\n        public\n        view\n        returns (\n            uint256,\n            string memory,\n            uint256,\n            uint256,\n            string memory,\n            ChainData.State,\n            address,\n            string memory,\n            string memory\n        )\n    {\n        require(products[_uid].uid != 0);\n        ChainData.Product storage product = products[_uid];\n\n        if (keccak256(bytes(_type)) == keccak256(bytes(\"product\"))) {\n            product = products[_uid];\n        }\n\n        if (keccak256(bytes(_type)) == keccak256(bytes(\"history\"))) {\n            product = productHistory[_uid].history[i];\n        }\n\n        return (\n            product.manufacturer.manufacturedDate,\n            product.details.productName,\n            product.details.productCode,\n            product.details.productPrice,\n            product.details.productCategory,\n            product.productState,\n            product.retailer.retailer,\n            product.retailer.retailerLongitude,\n            product.retailer.retailerLatitude\n        );\n    }\n\n    // Get details about retailer & distribution hub and transaction\n    function getRetailerDistributionDetails(\n        uint256 _uid,\n        string memory _type,\n        uint256 i\n    )\n        public\n        view\n        returns (\n            string memory,\n            address,\n            string memory,\n            string memory,\n            address,\n            string memory\n        )\n    {\n        require(products[_uid].uid != 0);\n        ChainData.Product storage product = products[_uid];\n\n        if (keccak256(bytes(_type)) == keccak256(bytes(\"product\"))) {\n            product = products[_uid];\n        }\n\n        if (keccak256(bytes(_type)) == keccak256(bytes(\"history\"))) {\n            product = productHistory[_uid].history[i];\n        }\n\n        return (\n            product.retailer.retailerLatitude,\n            product.distributionHub.distributionHub,\n            product.distributionHub.hubLongitude,\n            product.distributionHub.hubLatitude,\n            product.customer,\n            product.transaction\n        );\n    }\n\n    function getProductCount() public view returns (uint256) {\n        return uid;\n    }\n\n    function getProductHistoryLength(\n        uint256 _uid\n    ) public view returns (uint256) {\n        return productHistory[_uid].history.length;\n    }\n\n    function getProductState(\n        uint256 _uid\n    ) public view returns (ChainData.State) {\n        return products[_uid].productState;\n    }\n\n    // update the history of transactions for the current product in the ledger\n    function setTransactionHashOnManufacture(string memory transaction) public {\n        // accesses the most recent history entry of current product (last one)\n        productHistory[uid - 1]\n            .history[productHistory[uid - 1].history.length - 1]\n            .transaction = transaction;\n    }\n\n    function setTransactionHash(\n        uint256 _uid,\n        string memory transaction\n    ) public {\n        ChainData.Product storage product = productHistory[_uid].history[\n            productHistory[_uid].history.length - 1\n        ];\n        product.transaction = transaction;\n    }\n}\n",
  "sourcePath": "/Users/mac/Desktop/scm-dapp/contracts/SupplyChain.sol",
  "compiler": {
    "name": "solc",
    "version": "0.5.16+commit.9c3226ce.Emscripten.clang"
  },
  "schemaVersion": "3.4.16",
  "updatedAt": "2024-06-10T18:17:03.581Z",
  "networkType": "ethereum",
  "devdoc": {
    "methods": {}
  },
  "userdoc": {
    "methods": {}
  }
}