{
  "contractName": "Manufacturer",
  "abi": [
    {
      "inputs": [],
      "payable": false,
      "stateMutability": "nonpayable",
      "type": "constructor"
    },
    {
      "anonymous": false,
      "inputs": [
        {
          "indexed": true,
          "internalType": "address",
          "name": "_account",
          "type": "address"
        }
      ],
      "name": "ManufacturerAdded",
      "type": "event"
    },
    {
      "anonymous": false,
      "inputs": [
        {
          "indexed": true,
          "internalType": "address",
          "name": "_account",
          "type": "address"
        }
      ],
      "name": "ManufacturerRemoved",
      "type": "event"
    },
    {
      "constant": true,
      "inputs": [
        {
          "internalType": "address",
          "name": "_account",
          "type": "address"
        }
      ],
      "name": "isManufacturer",
      "outputs": [
        {
          "internalType": "bool",
          "name": "",
          "type": "bool"
        }
      ],
      "payable": false,
      "stateMutability": "view",
      "type": "function"
    },
    {
      "constant": false,
      "inputs": [
        {
          "internalType": "address",
          "name": "_account",
          "type": "address"
        }
      ],
      "name": "addManufacturer",
      "outputs": [],
      "payable": false,
      "stateMutability": "nonpayable",
      "type": "function"
    },
    {
      "constant": false,
      "inputs": [],
      "name": "removeManufacturer",
      "outputs": [],
      "payable": false,
      "stateMutability": "nonpayable",
      "type": "function"
    }
  ],
  "bytecode": "0x608060405234801561001057600080fd5b5061002933600061005960201b6101831790919060201c565b60405133907f561138658ca49a8540dc70dcfe64c9026c1c5b9344642242dd6562970f9c127890600090a26100e3565b6001600160a01b03811661006c57600080fd5b61007f82826001600160e01b036100ae16565b1561008957600080fd5b6001600160a01b0316600090815260209190915260409020805460ff19166001179055565b60006001600160a01b0382166100c357600080fd5b506001600160a01b03166000908152602091909152604090205460ff1690565b61024c806100f26000396000f3fe608060405234801561001057600080fd5b50600436106100415760003560e01c806317d4a491146100465780635f8a5afa14610080578063f89620e1146100a8575b600080fd5b61006c6004803603602081101561005c57600080fd5b50356001600160a01b03166100b0565b604080519115158252519081900360200190f35b6100a66004803603602081101561009657600080fd5b50356001600160a01b03166100c8565b005b6100a6610110565b60006100c2818363ffffffff61014e16565b92915050565b6100d960008263ffffffff61018316565b6040516001600160a01b038216907f561138658ca49a8540dc70dcfe64c9026c1c5b9344642242dd6562970f9c127890600090a250565b61012160003363ffffffff6101cf16565b60405133907f2fed5abf6a80d6dfe30b4895481b2fc5d7dce5f8f7b931832f4a2947d5040c7f90600090a2565b60006001600160a01b03821661016357600080fd5b506001600160a01b03166000908152602091909152604090205460ff1690565b6001600160a01b03811661019657600080fd5b6101a0828261014e565b156101aa57600080fd5b6001600160a01b0316600090815260209190915260409020805460ff19166001179055565b6001600160a01b0381166101e257600080fd5b6101ec828261014e565b6101f557600080fd5b6001600160a01b0316600090815260209190915260409020805460ff1916905556fea265627a7a72315820644dd0e7bea5361e9ec8bf8a872b74b46c9066fcadf647454c41f9fa025732a064736f6c63430005100032",
  "source": "// SPDX-License-Identifier: MIT\npragma solidity >=0.4.21 <0.9.0;\n\nimport \"./Roles.sol\";\n\ncontract Manufacturer {\n    using Roles for Roles.Role;\n\n    event ManufacturerAdded(address indexed _account); // address of manufacturer will be added on blockchain\n    event ManufacturerRemoved(address indexed _account);\n\n    Roles.Role manufacturersList;\n\n    constructor() public {\n        manufacturersList.addRole(msg.sender); // adds current account to the list\n        emit ManufacturerAdded((msg.sender));\n    }\n\n    modifier onlyForManufacturer() {\n        require(isManufacturer(msg.sender));\n        _;\n    }\n\n    // state of the contract is not modified\n    function isManufacturer(address _account) public view returns (bool) {\n        return manufacturersList.hasRole(_account);\n    }\n\n    function addManufacturer(address _account) public {\n        manufacturersList.addRole(_account);\n        emit ManufacturerAdded(_account);\n    }\n\n    function removeManufacturer() public {\n        manufacturersList.removeRole(msg.sender);\n        emit ManufacturerRemoved(msg.sender);\n    }\n}\n",
  "sourcePath": "/Users/mac/Desktop/scm-dapp/contracts/Manufacturer.sol",
  "compiler": {
    "name": "solc",
    "version": "0.5.16+commit.9c3226ce.Emscripten.clang"
  },
  "schemaVersion": "3.4.16",
  "updatedAt": "2024-06-25T14:53:28.806Z",
  "networkType": "ethereum",
  "devdoc": {
    "methods": {}
  },
  "userdoc": {
    "methods": {}
  }
}