{
  "contractName": "Retailer",
  "abi": [
    {
      "inputs": [],
      "payable": false,
      "stateMutability": "nonpayable",
      "type": "constructor"
    },
    {
      "anonymous": false,
      "inputs": [
        {
          "indexed": true,
          "internalType": "address",
          "name": "_account",
          "type": "address"
        }
      ],
      "name": "RetailerAdded",
      "type": "event"
    },
    {
      "anonymous": false,
      "inputs": [
        {
          "indexed": true,
          "internalType": "address",
          "name": "_account",
          "type": "address"
        }
      ],
      "name": "RetailerRemoved",
      "type": "event"
    },
    {
      "constant": true,
      "inputs": [
        {
          "internalType": "address",
          "name": "_account",
          "type": "address"
        }
      ],
      "name": "isRetailer",
      "outputs": [
        {
          "internalType": "bool",
          "name": "",
          "type": "bool"
        }
      ],
      "payable": false,
      "stateMutability": "view",
      "type": "function"
    },
    {
      "constant": false,
      "inputs": [
        {
          "internalType": "address",
          "name": "_account",
          "type": "address"
        }
      ],
      "name": "addRetailer",
      "outputs": [],
      "payable": false,
      "stateMutability": "nonpayable",
      "type": "function"
    },
    {
      "constant": false,
      "inputs": [],
      "name": "removeRetailer",
      "outputs": [],
      "payable": false,
      "stateMutability": "nonpayable",
      "type": "function"
    }
  ],
  "bytecode": "0x608060405234801561001057600080fd5b5061002933600061005960201b6101dd1790919060201c565b60405133907f71ae26cad02663e3d92efd6ec56031a80d74a20c0ab4183faa8bf262261c9baa90600090a26100e3565b6001600160a01b03811661006c57600080fd5b61007f82826001600160e01b036100ae16565b1561008957600080fd5b6001600160a01b0316600090815260209190915260409020805460ff19166001179055565b60006001600160a01b0382166100c357600080fd5b506001600160a01b03166000908152602091909152604090205460ff1690565b61025e806100f26000396000f3fe608060405234801561001057600080fd5b50600436106100415760003560e01c806316479b85146100465780635da09b88146100505780638ec4f5051461008a575b600080fd5b61004e6100b0565b005b6100766004803603602081101561006657600080fd5b50356001600160a01b03166100ee565b604080519115158252519081900360200190f35b61004e600480360360208110156100a057600080fd5b50356001600160a01b0316610106565b6100c160003363ffffffff61016016565b60405133907fdb7176e79cffef81cb01767dd0447a0b24bb72ca9778d4b245581086b2a7e6db90600090a2565b6000610100818363ffffffff6101a816565b92915050565b61010f336100ee565b61011857600080fd5b61012960008263ffffffff6101dd16565b6040516001600160a01b038216907f71ae26cad02663e3d92efd6ec56031a80d74a20c0ab4183faa8bf262261c9baa90600090a250565b6001600160a01b03811661017357600080fd5b61017d82826101a8565b61018657600080fd5b6001600160a01b0316600090815260209190915260409020805460ff19169055565b60006001600160a01b0382166101bd57600080fd5b506001600160a01b03166000908152602091909152604090205460ff1690565b6001600160a01b0381166101f057600080fd5b6101fa82826101a8565b1561020457600080fd5b6001600160a01b0316600090815260209190915260409020805460ff1916600117905556fea265627a7a723158205432d69f800b63c40ba4cc5597fc378e65bf7d77a3eafc40823bd8473126887c64736f6c63430005100032",
  "source": "// SPDX-License-Identifier: MIT\npragma solidity >=0.4.21 <0.9.0;\n\nimport \"./Roles.sol\";\n\ncontract Retailer {\n    using Roles for Roles.Role;\n\n    event RetailerAdded(address indexed _account);\n    event RetailerRemoved(address indexed _account);\n\n    Roles.Role private retailersList;\n\n    constructor() public {\n        retailersList.addRole(msg.sender); // adds the current retailer\n        emit RetailerAdded(msg.sender);\n    }\n\n    modifier onlyRetailer() {\n        require(isRetailer(msg.sender));\n        _;\n    }\n\n    function isRetailer(address _account) public view returns (bool) {\n        return retailersList.hasRole(_account);\n    }\n\n    function addRetailer(address _account) public onlyRetailer {\n        retailersList.addRole(_account);\n        emit RetailerAdded(_account);\n    }\n\n    function removeRetailer() public {\n        retailersList.removeRole(msg.sender);\n        emit RetailerRemoved(msg.sender);\n    }\n}\n",
  "sourcePath": "/Users/mac/Desktop/scm-dapp/contracts/Retailer.sol",
  "compiler": {
    "name": "solc",
    "version": "0.5.16+commit.9c3226ce.Emscripten.clang"
  },
  "schemaVersion": "3.4.16",
  "updatedAt": "2024-07-02T19:02:53.843Z",
  "devdoc": {
    "methods": {}
  },
  "userdoc": {
    "methods": {}
  }
}