{
  "contractName": "SupplyChain",
  "abi": [
    {
      "inputs": [],
      "payable": true,
      "stateMutability": "payable",
      "type": "constructor"
    },
    {
      "anonymous": false,
      "inputs": [
        {
          "indexed": false,
          "internalType": "uint256",
          "name": "uid",
          "type": "uint256"
        }
      ],
      "name": "Manufactured",
      "type": "event"
    },
    {
      "anonymous": false,
      "inputs": [
        {
          "indexed": true,
          "internalType": "address",
          "name": "_account",
          "type": "address"
        }
      ],
      "name": "ManufacturerAdded",
      "type": "event"
    },
    {
      "anonymous": false,
      "inputs": [
        {
          "indexed": false,
          "internalType": "uint256",
          "name": "uid",
          "type": "uint256"
        }
      ],
      "name": "PurchasedByCustomer",
      "type": "event"
    },
    {
      "anonymous": false,
      "inputs": [
        {
          "indexed": false,
          "internalType": "uint256",
          "name": "uid",
          "type": "uint256"
        }
      ],
      "name": "PurchasedByRetailer",
      "type": "event"
    },
    {
      "anonymous": false,
      "inputs": [
        {
          "indexed": false,
          "internalType": "uint256",
          "name": "uid",
          "type": "uint256"
        }
      ],
      "name": "ReceivedByCustomer",
      "type": "event"
    },
    {
      "anonymous": false,
      "inputs": [
        {
          "indexed": false,
          "internalType": "uint256",
          "name": "uid",
          "type": "uint256"
        }
      ],
      "name": "ReceivedByDistributionHub",
      "type": "event"
    },
    {
      "anonymous": false,
      "inputs": [
        {
          "indexed": false,
          "internalType": "uint256",
          "name": "uid",
          "type": "uint256"
        }
      ],
      "name": "ReceivedByRetailer",
      "type": "event"
    },
    {
      "anonymous": false,
      "inputs": [
        {
          "indexed": false,
          "internalType": "uint256",
          "name": "uid",
          "type": "uint256"
        }
      ],
      "name": "ShippedByDistributionHub",
      "type": "event"
    },
    {
      "anonymous": false,
      "inputs": [
        {
          "indexed": false,
          "internalType": "uint256",
          "name": "uid",
          "type": "uint256"
        }
      ],
      "name": "ShippedByManufacturer",
      "type": "event"
    },
    {
      "anonymous": false,
      "inputs": [
        {
          "indexed": false,
          "internalType": "uint256",
          "name": "uid",
          "type": "uint256"
        }
      ],
      "name": "ShippedByRetailer",
      "type": "event"
    },
    {
      "constant": true,
      "inputs": [],
      "name": "stockKeepingUnit",
      "outputs": [
        {
          "internalType": "uint256",
          "name": "",
          "type": "uint256"
        }
      ],
      "payable": false,
      "stateMutability": "view",
      "type": "function"
    },
    {
      "constant": true,
      "inputs": [],
      "name": "uid",
      "outputs": [
        {
          "internalType": "uint256",
          "name": "",
          "type": "uint256"
        }
      ],
      "payable": false,
      "stateMutability": "view",
      "type": "function"
    },
    {
      "constant": true,
      "inputs": [
        {
          "internalType": "address",
          "name": "_account",
          "type": "address"
        }
      ],
      "name": "hasManufacturerRole",
      "outputs": [
        {
          "internalType": "bool",
          "name": "",
          "type": "bool"
        }
      ],
      "payable": false,
      "stateMutability": "view",
      "type": "function"
    },
    {
      "constant": false,
      "inputs": [
        {
          "internalType": "address",
          "name": "_account",
          "type": "address"
        }
      ],
      "name": "addManufacturerRole",
      "outputs": [],
      "payable": false,
      "stateMutability": "nonpayable",
      "type": "function"
    },
    {
      "constant": true,
      "inputs": [
        {
          "internalType": "address",
          "name": "_account",
          "type": "address"
        }
      ],
      "name": "hasRetailerRole",
      "outputs": [
        {
          "internalType": "bool",
          "name": "",
          "type": "bool"
        }
      ],
      "payable": false,
      "stateMutability": "view",
      "type": "function"
    },
    {
      "constant": false,
      "inputs": [
        {
          "internalType": "address",
          "name": "_account",
          "type": "address"
        }
      ],
      "name": "addRetailerRole",
      "outputs": [],
      "payable": false,
      "stateMutability": "nonpayable",
      "type": "function"
    },
    {
      "constant": true,
      "inputs": [
        {
          "internalType": "address",
          "name": "_account",
          "type": "address"
        }
      ],
      "name": "hasDistributionHubRole",
      "outputs": [
        {
          "internalType": "bool",
          "name": "",
          "type": "bool"
        }
      ],
      "payable": false,
      "stateMutability": "view",
      "type": "function"
    },
    {
      "constant": false,
      "inputs": [
        {
          "internalType": "address",
          "name": "_account",
          "type": "address"
        }
      ],
      "name": "addDistributionHubRole",
      "outputs": [],
      "payable": false,
      "stateMutability": "nonpayable",
      "type": "function"
    },
    {
      "constant": true,
      "inputs": [
        {
          "internalType": "address",
          "name": "_account",
          "type": "address"
        }
      ],
      "name": "hasCustomerRole",
      "outputs": [
        {
          "internalType": "bool",
          "name": "",
          "type": "bool"
        }
      ],
      "payable": false,
      "stateMutability": "view",
      "type": "function"
    },
    {
      "constant": false,
      "inputs": [
        {
          "internalType": "address",
          "name": "_account",
          "type": "address"
        }
      ],
      "name": "addCustomerRole",
      "outputs": [],
      "payable": false,
      "stateMutability": "nonpayable",
      "type": "function"
    },
    {
      "constant": false,
      "inputs": [
        {
          "internalType": "string",
          "name": "manufacturerName",
          "type": "string"
        },
        {
          "internalType": "string",
          "name": "manufactureDetails",
          "type": "string"
        },
        {
          "internalType": "string",
          "name": "manufactureLongitude",
          "type": "string"
        },
        {
          "internalType": "string",
          "name": "manufactureLatitude",
          "type": "string"
        },
        {
          "internalType": "string",
          "name": "productName",
          "type": "string"
        },
        {
          "internalType": "uint256",
          "name": "productCode",
          "type": "uint256"
        },
        {
          "internalType": "uint256",
          "name": "productPrice",
          "type": "uint256"
        },
        {
          "internalType": "string",
          "name": "productCategory",
          "type": "string"
        }
      ],
      "name": "manufactureProduct",
      "outputs": [],
      "payable": false,
      "stateMutability": "nonpayable",
      "type": "function"
    },
    {
      "constant": false,
      "inputs": [
        {
          "internalType": "uint256",
          "name": "_uid",
          "type": "uint256"
        }
      ],
      "name": "purchaseByRetailer",
      "outputs": [],
      "payable": false,
      "stateMutability": "nonpayable",
      "type": "function"
    },
    {
      "constant": false,
      "inputs": [
        {
          "internalType": "uint256",
          "name": "_uid",
          "type": "uint256"
        }
      ],
      "name": "shipToRetailer",
      "outputs": [],
      "payable": false,
      "stateMutability": "nonpayable",
      "type": "function"
    },
    {
      "constant": false,
      "inputs": [
        {
          "internalType": "uint256",
          "name": "_uid",
          "type": "uint256"
        },
        {
          "internalType": "string",
          "name": "retailerLongitude",
          "type": "string"
        },
        {
          "internalType": "string",
          "name": "retailerLatitude",
          "type": "string"
        }
      ],
      "name": "receiveByRetailer",
      "outputs": [],
      "payable": false,
      "stateMutability": "nonpayable",
      "type": "function"
    },
    {
      "constant": false,
      "inputs": [
        {
          "internalType": "uint256",
          "name": "_uid",
          "type": "uint256"
        }
      ],
      "name": "purchaseByCustomer",
      "outputs": [],
      "payable": false,
      "stateMutability": "nonpayable",
      "type": "function"
    },
    {
      "constant": false,
      "inputs": [
        {
          "internalType": "uint256",
          "name": "_uid",
          "type": "uint256"
        }
      ],
      "name": "shipByRetailer",
      "outputs": [],
      "payable": false,
      "stateMutability": "nonpayable",
      "type": "function"
    },
    {
      "constant": false,
      "inputs": [
        {
          "internalType": "uint256",
          "name": "_uid",
          "type": "uint256"
        },
        {
          "internalType": "string",
          "name": "hubLongitude",
          "type": "string"
        },
        {
          "internalType": "string",
          "name": "hubLatitude",
          "type": "string"
        }
      ],
      "name": "receiveByDistributionHub",
      "outputs": [],
      "payable": false,
      "stateMutability": "nonpayable",
      "type": "function"
    },
    {
      "constant": false,
      "inputs": [
        {
          "internalType": "uint256",
          "name": "_uid",
          "type": "uint256"
        }
      ],
      "name": "shipByDistributionHub",
      "outputs": [],
      "payable": false,
      "stateMutability": "nonpayable",
      "type": "function"
    },
    {
      "constant": false,
      "inputs": [
        {
          "internalType": "uint256",
          "name": "_uid",
          "type": "uint256"
        }
      ],
      "name": "receiveByCustomer",
      "outputs": [],
      "payable": false,
      "stateMutability": "nonpayable",
      "type": "function"
    },
    {
      "constant": true,
      "inputs": [
        {
          "internalType": "uint256",
          "name": "_uid",
          "type": "uint256"
        },
        {
          "internalType": "string",
          "name": "_type",
          "type": "string"
        },
        {
          "internalType": "uint256",
          "name": "i",
          "type": "uint256"
        }
      ],
      "name": "getBasicProductDetails",
      "outputs": [
        {
          "internalType": "uint256",
          "name": "",
          "type": "uint256"
        },
        {
          "internalType": "uint256",
          "name": "",
          "type": "uint256"
        },
        {
          "internalType": "address",
          "name": "",
          "type": "address"
        },
        {
          "internalType": "address",
          "name": "",
          "type": "address"
        },
        {
          "internalType": "string",
          "name": "",
          "type": "string"
        },
        {
          "internalType": "string",
          "name": "",
          "type": "string"
        },
        {
          "internalType": "string",
          "name": "",
          "type": "string"
        },
        {
          "internalType": "string",
          "name": "",
          "type": "string"
        }
      ],
      "payable": false,
      "stateMutability": "view",
      "type": "function"
    },
    {
      "constant": true,
      "inputs": [
        {
          "internalType": "uint256",
          "name": "_uid",
          "type": "uint256"
        },
        {
          "internalType": "string",
          "name": "_type",
          "type": "string"
        },
        {
          "internalType": "uint256",
          "name": "i",
          "type": "uint256"
        }
      ],
      "name": "getAdditionalProductDetails",
      "outputs": [
        {
          "internalType": "uint256",
          "name": "",
          "type": "uint256"
        },
        {
          "internalType": "string",
          "name": "",
          "type": "string"
        },
        {
          "internalType": "uint256",
          "name": "",
          "type": "uint256"
        },
        {
          "internalType": "uint256",
          "name": "",
          "type": "uint256"
        },
        {
          "internalType": "string",
          "name": "",
          "type": "string"
        },
        {
          "internalType": "enum ChainData.State",
          "name": "",
          "type": "uint8"
        },
        {
          "internalType": "address",
          "name": "",
          "type": "address"
        },
        {
          "internalType": "string",
          "name": "",
          "type": "string"
        },
        {
          "internalType": "string",
          "name": "",
          "type": "string"
        }
      ],
      "payable": false,
      "stateMutability": "view",
      "type": "function"
    },
    {
      "constant": true,
      "inputs": [
        {
          "internalType": "uint256",
          "name": "_uid",
          "type": "uint256"
        },
        {
          "internalType": "string",
          "name": "_type",
          "type": "string"
        },
        {
          "internalType": "uint256",
          "name": "i",
          "type": "uint256"
        }
      ],
      "name": "getRetailerDistributionDetails",
      "outputs": [
        {
          "internalType": "string",
          "name": "",
          "type": "string"
        },
        {
          "internalType": "address",
          "name": "",
          "type": "address"
        },
        {
          "internalType": "string",
          "name": "",
          "type": "string"
        },
        {
          "internalType": "string",
          "name": "",
          "type": "string"
        },
        {
          "internalType": "address",
          "name": "",
          "type": "address"
        },
        {
          "internalType": "string",
          "name": "",
          "type": "string"
        }
      ],
      "payable": false,
      "stateMutability": "view",
      "type": "function"
    },
    {
      "constant": true,
      "inputs": [],
      "name": "getProductCount",
      "outputs": [
        {
          "internalType": "uint256",
          "name": "",
          "type": "uint256"
        }
      ],
      "payable": false,
      "stateMutability": "view",
      "type": "function"
    },
    {
      "constant": true,
      "inputs": [
        {
          "internalType": "uint256",
          "name": "_uid",
          "type": "uint256"
        }
      ],
      "name": "getProductHistoryLength",
      "outputs": [
        {
          "internalType": "uint256",
          "name": "",
          "type": "uint256"
        }
      ],
      "payable": false,
      "stateMutability": "view",
      "type": "function"
    },
    {
      "constant": true,
      "inputs": [
        {
          "internalType": "uint256",
          "name": "_uid",
          "type": "uint256"
        }
      ],
      "name": "getProductState",
      "outputs": [
        {
          "internalType": "enum ChainData.State",
          "name": "",
          "type": "uint8"
        }
      ],
      "payable": false,
      "stateMutability": "view",
      "type": "function"
    },
    {
      "constant": true,
      "inputs": [
        {
          "internalType": "uint256",
          "name": "_uid",
          "type": "uint256"
        },
        {
          "internalType": "uint256",
          "name": "historyIndex",
          "type": "uint256"
        }
      ],
      "name": "getOperationTimestamp",
      "outputs": [
        {
          "internalType": "uint256",
          "name": "",
          "type": "uint256"
        }
      ],
      "payable": false,
      "stateMutability": "view",
      "type": "function"
    },
    {
      "constant": false,
      "inputs": [
        {
          "internalType": "string",
          "name": "transaction",
          "type": "string"
        }
      ],
      "name": "setTransactionHashOnManufacture",
      "outputs": [],
      "payable": false,
      "stateMutability": "nonpayable",
      "type": "function"
    },
    {
      "constant": false,
      "inputs": [
        {
          "internalType": "uint256",
          "name": "_uid",
          "type": "uint256"
        },
        {
          "internalType": "string",
          "name": "transaction",
          "type": "string"
        }
      ],
      "name": "setTransactionHash",
      "outputs": [],
      "payable": false,
      "stateMutability": "nonpayable",
      "type": "function"
    }
  ],
  "bytecode": "0x6080604052600080546001600160a01b03191633179055600160028190558055614a688061002e6000396000f3fe608060405234801561001057600080fd5b50600436106101c35760003560e01c806372df397e116100f9578063d9b6f25611610097578063ef8da2aa11610071578063ef8da2aa1461103d578063f514ce3614611063578063fb065a8d1461106b578063fc871dbd14611091576101c3565b8063d9b6f25614610f74578063e55128ea14610f91578063eefb95d714611035576101c3565b806391a2a77b116100d357806391a2a77b14610b64578063a2c1067214610b87578063c21e3f3a14610e1e578063c8a68a2a14610e44576101c3565b806372df397e14610a76578063786ea16114610a935780638290f85914610b3e576101c3565b80632fb32c2b116101665780634a348da9116101405780634a348da9146107915780636000ada1146107995780636aef6272146107bf5780637217eb2e14610a59576101c3565b80632fb32c2b14610716578063350fe57b14610745578063453dd4af1461076b576101c3565b806312bb716d116101a257806312bb716d1461067e57806321161f27146106bf57806327491e73146106dc5780632acd8ae1146106f9576101c3565b80623375b7146101c8578063024edf9a1461051457806306ca031e1461054e575b600080fd5b61051260048036036101008110156101df57600080fd5b810190602081018135600160201b8111156101f957600080fd5b82018360208201111561020b57600080fd5b803590602001918460018302840111600160201b8311171561022c57600080fd5b91908080601f0160208091040260200160405190810160405280939291908181526020018383808284376000920191909152509295949360208101935035915050600160201b81111561027e57600080fd5b82018360208201111561029057600080fd5b803590602001918460018302840111600160201b831117156102b157600080fd5b91908080601f0160208091040260200160405190810160405280939291908181526020018383808284376000920191909152509295949360208101935035915050600160201b81111561030357600080fd5b82018360208201111561031557600080fd5b803590602001918460018302840111600160201b8311171561033657600080fd5b91908080601f0160208091040260200160405190810160405280939291908181526020018383808284376000920191909152509295949360208101935035915050600160201b81111561038857600080fd5b82018360208201111561039a57600080fd5b803590602001918460018302840111600160201b831117156103bb57600080fd5b91908080601f0160208091040260200160405190810160405280939291908181526020018383808284376000920191909152509295949360208101935035915050600160201b81111561040d57600080fd5b82018360208201111561041f57600080fd5b803590602001918460018302840111600160201b8311171561044057600080fd5b91908080601f0160208091040260200160405190810160405280939291908181526020018383808284376000920191909152509295843595602086013595919450925060608101915060400135600160201b81111561049e57600080fd5b8201836020820111156104b057600080fd5b803590602001918460018302840111600160201b831117156104d157600080fd5b91908080601f01602080910402602001604051908101604052809392919081815260200183838082843760009201919091525092955061131a945050505050565b005b61053a6004803603602081101561052a57600080fd5b50356001600160a01b03166119c4565b604080519115158252519081900360200190f35b6105126004803603606081101561056457600080fd5b81359190810190604081016020820135600160201b81111561058557600080fd5b82018360208201111561059757600080fd5b803590602001918460018302840111600160201b831117156105b857600080fd5b91908080601f0160208091040260200160405190810160405280939291908181526020018383808284376000920191909152509295949360208101935035915050600160201b81111561060a57600080fd5b82018360208201111561061c57600080fd5b803590602001918460018302840111600160201b8311171561063d57600080fd5b91908080601f0160208091040260200160405190810160405280939291908181526020018383808284376000920191909152509295506119ff945050505050565b61069b6004803603602081101561069457600080fd5b5035611e07565b604051808260088111156106ab57fe5b60ff16815260200191505060405180910390f35b610512600480360360208110156106d557600080fd5b5035611e1f565b610512600480360360208110156106f257600080fd5b5035612203565b6105126004803603602081101561070f57600080fd5b50356125b7565b6107336004803603602081101561072c57600080fd5b50356129de565b60408051918252519081900360200190f35b61053a6004803603602081101561075b57600080fd5b50356001600160a01b03166129f0565b6105126004803603602081101561078157600080fd5b50356001600160a01b0316612a29565b610733612a79565b61053a600480360360208110156107af57600080fd5b50356001600160a01b0316612a80565b61086c600480360360608110156107d557600080fd5b81359190810190604081016020820135600160201b8111156107f657600080fd5b82018360208201111561080857600080fd5b803590602001918460018302840111600160201b8311171561082957600080fd5b91908080601f0160208091040260200160405190810160405280939291908181526020018383808284376000920191909152509295505091359250612ab4915050565b604051808a8152602001806020018981526020018881526020018060200187600881111561089657fe5b60ff168152602001866001600160a01b03166001600160a01b03168152602001806020018060200185810385528d818151815260200191508051906020019080838360005b838110156108f35781810151838201526020016108db565b50505050905090810190601f1680156109205780820380516001836020036101000a031916815260200191505b5085810384528a5181528a516020918201918c019080838360005b8381101561095357818101518382015260200161093b565b50505050905090810190601f1680156109805780820380516001836020036101000a031916815260200191505b50858103835287518152875160209182019189019080838360005b838110156109b357818101518382015260200161099b565b50505050905090810190601f1680156109e05780820380516001836020036101000a031916815260200191505b50858103825286518152865160209182019188019080838360005b83811015610a135781810151838201526020016109fb565b50505050905090810190601f168015610a405780820380516001836020036101000a031916815260200191505b509d505050505050505050505050505060405180910390f35b61051260048036036020811015610a6f57600080fd5b5035612e66565b61051260048036036020811015610a8c57600080fd5b5035613203565b61051260048036036040811015610aa957600080fd5b81359190810190604081016020820135600160201b811115610aca57600080fd5b820183602082011115610adc57600080fd5b803590602001918460018302840111600160201b83111715610afd57600080fd5b91908080601f0160208091040260200160405190810160405280939291908181526020018383808284376000920191909152509295506135c8945050505050565b61051260048036036020811015610b5457600080fd5b50356001600160a01b0316613614565b61073360048036036040811015610b7a57600080fd5b508035906020013561365e565b610c3460048036036060811015610b9d57600080fd5b81359190810190604081016020820135600160201b811115610bbe57600080fd5b820183602082011115610bd057600080fd5b803590602001918460018302840111600160201b83111715610bf157600080fd5b91908080601f016020809104026020016040519081016040528093929190818152602001838380828437600092019190915250929550509135925061374c915050565b60405180898152602001888152602001876001600160a01b03166001600160a01b03168152602001866001600160a01b03166001600160a01b0316815260200180602001806020018060200180602001858103855289818151815260200191508051906020019080838360005b83811015610cb9578181015183820152602001610ca1565b50505050905090810190601f168015610ce65780820380516001836020036101000a031916815260200191505b5085810384528851815288516020918201918a019080838360005b83811015610d19578181015183820152602001610d01565b50505050905090810190601f168015610d465780820380516001836020036101000a031916815260200191505b50858103835287518152875160209182019189019080838360005b83811015610d79578181015183820152602001610d61565b50505050905090810190601f168015610da65780820380516001836020036101000a031916815260200191505b50858103825286518152865160209182019188019080838360005b83811015610dd9578181015183820152602001610dc1565b50505050905090810190601f168015610e065780820380516001836020036101000a031916815260200191505b509c5050505050505050505050505060405180910390f35b61051260048036036020811015610e3457600080fd5b50356001600160a01b0316613ae7565b61051260048036036060811015610e5a57600080fd5b81359190810190604081016020820135600160201b811115610e7b57600080fd5b820183602082011115610e8d57600080fd5b803590602001918460018302840111600160201b83111715610eae57600080fd5b91908080601f0160208091040260200160405190810160405280939291908181526020018383808284376000920191909152509295949360208101935035915050600160201b811115610f0057600080fd5b820183602082011115610f1257600080fd5b803590602001918460018302840111600160201b83111715610f3357600080fd5b91908080601f016020809104026020016040519081016040528093929190818152602001838380828437600092019190915250929550613b35945050505050565b61051260048036036020811015610f8a57600080fd5b5035613f50565b61051260048036036020811015610fa757600080fd5b810190602081018135600160201b811115610fc157600080fd5b820183602082011115610fd357600080fd5b803590602001918460018302840111600160201b83111715610ff457600080fd5b91908080601f0160208091040260200160405190810160405280939291908181526020018383808284376000920191909152509295506142e0945050505050565b61073361435b565b6105126004803603602081101561105357600080fd5b50356001600160a01b0316614361565b6107336143ad565b61053a6004803603602081101561108157600080fd5b50356001600160a01b03166143b3565b61113e600480360360608110156110a757600080fd5b81359190810190604081016020820135600160201b8111156110c857600080fd5b8201836020820111156110da57600080fd5b803590602001918460018302840111600160201b831117156110fb57600080fd5b91908080601f01602080910402602001604051908101604052809392919081815260200183838082843760009201919091525092955050913592506143ed915050565b6040518080602001876001600160a01b03166001600160a01b031681526020018060200180602001866001600160a01b03166001600160a01b031681526020018060200185810385528b818151815260200191508051906020019080838360005b838110156111b757818101518382015260200161119f565b50505050905090810190601f1680156111e45780820380516001836020036101000a031916815260200191505b5085810384528951815289516020918201918b019080838360005b838110156112175781810151838201526020016111ff565b50505050905090810190601f1680156112445780820380516001836020036101000a031916815260200191505b5085810383528851815288516020918201918a019080838360005b8381101561127757818101518382015260200161125f565b50505050905090810190601f1680156112a45780820380516001836020036101000a031916815260200191505b50858103825286518152865160209182019188019080838360005b838110156112d75781810151838201526020016112bf565b50505050905090810190601f1680156113045780820380516001836020036101000a031916815260200191505b509a505050505050505050505060405180910390f35b61132333612a80565b61132c57600080fd5b6001546113376147dc565b81815260405186516000918891869160209081019182918501908083835b602083106113745780518252601f199092019160209182019101611355565b51815160209384036101000a600019018019909216911617905285519190930192850191508083835b602083106113bc5780518252601f19909201916020918201910161139d565b6001836020036101000a0380198251168184511680821785525050505050509050019250505060405160208183030381529060405280519060200120905060056000828152602001908152602001600020546000141561142d57600081815260056020526040902060019055611443565b6000818152600560205260409020805460010190555b600081815260056020908152604091829020548482015260c0840180519091018d9052805182018c905280516060018b905280516080018a905280514260a0919091015233918401829052515261149982614774565b600060a08301526114ad82888888886147ba565b4261014083015260008381526003602081815260409283902085518155818601516001820155928501516002840180546001600160a01b039283166001600160a01b03199182161790915560608701519385018054949092169316929092179091556080840151805185939261152a92600485019291019061484d565b5060a082015160058201805460ff1916600183600881111561154857fe5b021790555060c082015180516006830180546001600160a01b0319166001600160a01b03909216919091178155602080830151805161158d926007870192019061484d565b50604082015180516115a991600284019160209091019061484d565b50606082015180516115c591600384019160209091019061484d565b50608082015180516115e191600484019160209091019061484d565b5060a0919091015160059091015560e08201518051600c830180546001600160a01b0319166001600160a01b03909216919091178155602080830151805161162f92600d870192019061484d565b506040820151805161164b91600284019160209091019061484d565b5050506101008201518051600f83019081556020808301518051611675926010870192019061484d565b50604082015160028201556060820151805161169b91600384019160209091019061484d565b50505061012082015180516013830180546001600160a01b0319166001600160a01b0390921691909117815560208083015180516116df926014870192019061484d565b50604082015180516116fb91600284019160209091019061484d565b50505061014091909101516016909101556000838152600460208181526040808420805460018181018084559287529584902088516017909202019081558784015195810195909555908601516002850180546001600160a01b039283166001600160a01b0319918216179091556060880151600387018054919093169116179055608086015180519194879490936117999391850192019061484d565b5060a082015160058201805460ff191660018360088111156117b757fe5b021790555060c082015180516006830180546001600160a01b0319166001600160a01b0390921691909117815560208083015180516117fc926007870192019061484d565b506040820151805161181891600284019160209091019061484d565b506060820151805161183491600384019160209091019061484d565b506080820151805161185091600484019160209091019061484d565b5060a0919091015160059091015560e08201518051600c830180546001600160a01b0319166001600160a01b03909216919091178155602080830151805161189e92600d870192019061484d565b50604082015180516118ba91600284019160209091019061484d565b5050506101008201518051600f830190815560208083015180516118e4926010870192019061484d565b50604082015160028201556060820151805161190a91600384019160209091019061484d565b50505061012082015180516013830180546001600160a01b0319166001600160a01b03909216919091178155602080830151805161194e926014870192019061484d565b506040820151805161196a91600284019160209091019061484d565b50505061014091909101516016909101555060018054810190556040805184815290517fd29d8a68ca7c8c74be5579719d445aabfe230ed6e6a83aff475a663500eb76099181900360200190a15050505050505050505050565b60006001600160a01b0382166119d957600080fd5b506001600160a01b03166000908152600660205260409020546301000000900460ff1690565b82600560008281526003602052604090206005015460ff166008811115611a2257fe5b14611a2c57600080fd5b611a35336143b3565b611a3e57600080fd5b6000848152600360209081526040909120600281018054336001600160a01b0319918216811790925560138301805490911690911790558451611a899260149092019186019061484d565b5060008481526003602090815260409091208351611aaf9260159092019185019061484d565b50600084815260036020818152604080842060058101805460ff19166006179055426016820155600480845291852084845280546001818101808455928852949096208254601790970201958655838201548685015560028083015481880180546001600160a01b039283166001600160a01b031991821617909155848801549789018054989092169716969096179095558282018054919692959294611b6b94860193919261010091811615919091026000190116046148cb565b50600582810154908201805460ff9092169160ff19166001836008811115611b8f57fe5b02179055506006828101805491830180546001600160a01b0319166001600160a01b0390931692909217825560078085018054929392611be59286019190600260001960018316156101000201909116046148cb565b5060028281018054611c0a9284810192916000196101006001831615020116046148cb565b5060038201816003019080546001816001161561010002031660029004611c329291906148cb565b5060048201816004019080546001816001161561010002031660029004611c5a9291906148cb565b50600591820154910155600c828101805491830180546001600160a01b0319166001600160a01b03909316929092178255600d8085018054929392611cb59286019190600260001960018316156101000201909116046148cb565b5060028281018054611cda9284810192916000196101006001831615020116046148cb565b505050600f820181600f016000820154816000015560018201816001019080546001816001161561010002031660029004611d169291906148cb565b506002820154816002015560038201816003019080546001816001161561010002031660029004611d489291906148cb565b5050506013828101805491830180546001600160a01b0319166001600160a01b0390931692909217825560148085018054929392611d9c9286019190600260001960018316156101000201909116046148cb565b5060028281018054611dc19284810192916000196101006001831615020116046148cb565b505050601691820154910155506040805185815290517fc0016be4cb0f515e62a8fb7b59d7f79c8a2942281df4212980b05990432d0b6b9181900360200190a150505050565b60009081526003602052604090206005015460ff1690565b80600660008281526003602052604090206005015460ff166008811115611e4257fe5b14611e4c57600080fd5b6000828152600360205260409020600201546001600160a01b0316338114611e7357600080fd5b6000838152600360205260409020601301546001600160a01b0316338114611e9a57600080fd5b611ea3336143b3565b611eac57600080fd5b600084815260036020818152604080842060058101805460ff19166007179055426016820155600480845291852084845280546001818101808455928852949096208254601790970201958655838201548685015560028083015481880180546001600160a01b039283166001600160a01b031991821617909155848801549789018054989092169716969096179095558282018054919692959294611f6794860193919261010091811615919091026000190116046148cb565b50600582810154908201805460ff9092169160ff19166001836008811115611f8b57fe5b02179055506006828101805491830180546001600160a01b0319166001600160a01b0390931692909217825560078085018054929392611fe19286019190600260001960018316156101000201909116046148cb565b50600282810180546120069284810192916000196101006001831615020116046148cb565b506003820181600301908054600181600116156101000203166002900461202e9291906148cb565b50600482018160040190805460018160011615610100020316600290046120569291906148cb565b50600591820154910155600c828101805491830180546001600160a01b0319166001600160a01b03909316929092178255600d80850180549293926120b19286019190600260001960018316156101000201909116046148cb565b50600282810180546120d69284810192916000196101006001831615020116046148cb565b505050600f820181600f0160008201548160000155600182018160010190805460018160011615610100020316600290046121129291906148cb565b5060028201548160020155600382018160030190805460018160011615610100020316600290046121449291906148cb565b5050506013828101805491830180546001600160a01b0319166001600160a01b03909316929092178255601480850180549293926121989286019190600260001960018316156101000201909116046148cb565b50600282810180546121bd9284810192916000196101006001831615020116046148cb565b505050601691820154910155506040805185815290517fc7fa6f5dfaf2f9e777a7e75599b9cb46dc5156109394ed2d629652301b7d21e09181900360200190a150505050565b6000818152600360205260409020600201546001600160a01b031633811461222a57600080fd5b6000828152600360205260409020600c01546001600160a01b031633811461225157600080fd5b61225a336129f0565b61226357600080fd5b60008381526003602081815260408084206005808201805460ff19169091179055426016820155600480845291852084845280546001818101808455928852949096208254601790970201958655838201548685015560028083015481880180546001600160a01b03199081166001600160a01b03938416179091558488015497890180549091169790911696909617909555828201805491969295929461231d94860193919290811615610100026000190116046148cb565b50600582810154908201805460ff9092169160ff1916600183600881111561234157fe5b02179055506006828101805491830180546001600160a01b0319166001600160a01b03909316929092178255600780850180549293926123979286019190600260001960018316156101000201909116046148cb565b50600282810180546123bc9284810192916000196101006001831615020116046148cb565b50600382018160030190805460018160011615610100020316600290046123e49291906148cb565b506004820181600401908054600181600116156101000203166002900461240c9291906148cb565b50600591820154910155600c828101805491830180546001600160a01b0319166001600160a01b03909316929092178255600d80850180549293926124679286019190600260001960018316156101000201909116046148cb565b506002828101805461248c9284810192916000196101006001831615020116046148cb565b505050600f820181600f0160008201548160000155600182018160010190805460018160011615610100020316600290046124c89291906148cb565b5060028201548160020155600382018160030190805460018160011615610100020316600290046124fa9291906148cb565b5050506013828101805491830180546001600160a01b0319166001600160a01b039093169290921782556014808501805492939261254e9286019190600260001960018316156101000201909116046148cb565b50600282810180546125739284810192916000196101006001831615020116046148cb565b505050601691820154910155506040805184815290517e114a6fadb43e05c82c84612f44de7a592a32426b619579ae7bb4f3815616c79181900360200190a1505050565b806000808281526003602052604090206005015460ff1660088111156125d957fe5b146125e357600080fd5b6125ec336129f0565b6126275760405162461bcd60e51b8152600401808060200182810382526022815260200180614a126022913960400191505060405180910390fd5b60008281526003602052604081206005015460ff16600881111561264757fe5b146126835760405162461bcd60e51b81526004018080602001828103825260268152602001806149ec6026913960400191505060405180910390fd5b6000828152600360208181526040808420600c810180546001600160a01b0319908116331790915560058201805460ff19166001908117909155426016840155600480865293872086865280548083018083559189529590972083546017909602019485558083015485820155600280840154818701805485166001600160a01b03928316179055848801549787018054909416971696909617909155828201805492956127449486019391928216156101000260001901909116046148cb565b50600582810154908201805460ff9092169160ff1916600183600881111561276857fe5b02179055506006828101805491830180546001600160a01b0319166001600160a01b03909316929092178255600780850180549293926127be9286019190600260001960018316156101000201909116046148cb565b50600282810180546127e39284810192916000196101006001831615020116046148cb565b506003820181600301908054600181600116156101000203166002900461280b9291906148cb565b50600482018160040190805460018160011615610100020316600290046128339291906148cb565b50600591820154910155600c828101805491830180546001600160a01b0319166001600160a01b03909316929092178255600d808501805492939261288e9286019190600260001960018316156101000201909116046148cb565b50600282810180546128b39284810192916000196101006001831615020116046148cb565b505050600f820181600f0160008201548160000155600182018160010190805460018160011615610100020316600290046128ef9291906148cb565b5060028201548160020155600382018160030190805460018160011615610100020316600290046129219291906148cb565b5050506013828101805491830180546001600160a01b0319166001600160a01b03909316929092178255601480850180549293926129759286019190600260001960018316156101000201909116046148cb565b506002828101805461299a9284810192916000196101006001831615020116046148cb565b505050601691820154910155506040805183815290517faa7352d10146444c3afd9bd7fb0ae56b0a85e81139536bbec3f1f660fddd7be19181900360200190a15050565b60009081526004602052604090205490565b60006001600160a01b038216612a0557600080fd5b506001600160a01b0316600090815260066020526040902054610100900460ff1690565b6001600160a01b038116612a3c57600080fd5b612a45816143b3565b15612a4f57600080fd5b6001600160a01b03166000908152600660205260409020805463ff00000019166301000000179055565b6001545b90565b60006001600160a01b038216612a9557600080fd5b506001600160a01b031660009081526006602052604090205460ff1690565b600060606000806060600080606080600360008d81526020019081526020016000206000015460001415612ae757600080fd5b60008c815260036020908152604091829020825180840190935260078352661c1c9bd91d58dd60ca1b928201929092528c51908d01207f36a4a183f82db747ab399ca476ab84cc3def6abe3ac63748d03b4584af38d0571415612b54575060008c81526003602052604090205b604080518082019091526007815266686973746f727960c81b6020918201528c51908d01207f5cb4ee416d23b95cd5367c15d6b361ec02394b3d48d629418b0e5e7eda6758581415612bcb5760008d815260046020526040902080548c908110612bba57fe5b906000526020600020906017020190505b600b810154600f82015460118301546005840154600c850154601086018054604080516020601f600260001960018716156101000201909516949094049384018190048102820181019092528281529296959460128a019460ff909116936001600160a01b0390911692600d8b0192600e8c0192918a91830182828015612c935780601f10612c6857610100808354040283529160200191612c93565b820191906000526020600020905b815481529060010190602001808311612c7657829003601f168201915b5050885460408051602060026001851615610100026000190190941693909304601f8101849004840282018401909252818152959d508a945092508401905082828015612d215780601f10612cf657610100808354040283529160200191612d21565b820191906000526020600020905b815481529060010190602001808311612d0457829003601f168201915b5050855460408051602060026001851615610100026000190190941693909304601f8101849004840282018401909252818152959a5087945092508401905082828015612daf5780601f10612d8457610100808354040283529160200191612daf565b820191906000526020600020905b815481529060010190602001808311612d9257829003601f168201915b5050845460408051602060026001851615610100026000190190941693909304601f810184900484028201840190925281815295975086945092508401905082828015612e3d5780601f10612e1257610100808354040283529160200191612e3d565b820191906000526020600020905b815481529060010190602001808311612e2057829003601f168201915b505050505090509950995099509950995099509950995099505093979b92969a50939750939750565b80600360008281526003602052604090206005015460ff166008811115612e8957fe5b14612e9357600080fd5b612e9c336119c4565b612ea557600080fd5b600082815260036020818152604080842080840180546001600160a01b031990811633178255600583018054600460ff19909116811790915542601685015580865293872086865280546001818101808455928a529690982084546017909902019788558584015488870155600280850154818a01805485166001600160a01b0392831617905593549789018054909316979093169690961790558282018054959692959294612f69948601939192908216156101000260001901909116046148cb565b50600582810154908201805460ff9092169160ff19166001836008811115612f8d57fe5b02179055506006828101805491830180546001600160a01b0319166001600160a01b0390931692909217825560078085018054929392612fe39286019190600260001960018316156101000201909116046148cb565b50600282810180546130089284810192916000196101006001831615020116046148cb565b50600382018160030190805460018160011615610100020316600290046130309291906148cb565b50600482018160040190805460018160011615610100020316600290046130589291906148cb565b50600591820154910155600c828101805491830180546001600160a01b0319166001600160a01b03909316929092178255600d80850180549293926130b39286019190600260001960018316156101000201909116046148cb565b50600282810180546130d89284810192916000196101006001831615020116046148cb565b505050600f820181600f0160008201548160000155600182018160010190805460018160011615610100020316600290046131149291906148cb565b5060028201548160020155600382018160030190805460018160011615610100020316600290046131469291906148cb565b5050506013828101805491830180546001600160a01b0319166001600160a01b039093169290921782556014808501805492939261319a9286019190600260001960018316156101000201909116046148cb565b50600282810180546131bf9284810192916000196101006001831615020116046148cb565b505050601691820154910155506040805183815290517ffd054e59d299873fab61a3c67d86d3a139b75dcd5cd82894d8983fc5e2669c829181900360200190a15050565b80600760008281526003602052604090206005015460ff16600881111561322657fe5b1461323057600080fd5b600082815260036020819052604090912001546001600160a01b031633811461325857600080fd5b613261336119c4565b61326a57600080fd5b6000838152600360208181526040808420600280820180546001600160a01b031990811633178255600584018054600860ff19909116179055426016850155600480875294882087875280546001818101808455928b529790992085546017909a020198895586850154898801559154888401805483166001600160a01b03928316179055848801549789018054909216971696909617909555828201805495969295929461332d948601939192908216156101000260001901909116046148cb565b50600582810154908201805460ff9092169160ff1916600183600881111561335157fe5b02179055506006828101805491830180546001600160a01b0319166001600160a01b03909316929092178255600780850180549293926133a79286019190600260001960018316156101000201909116046148cb565b50600282810180546133cc9284810192916000196101006001831615020116046148cb565b50600382018160030190805460018160011615610100020316600290046133f49291906148cb565b506004820181600401908054600181600116156101000203166002900461341c9291906148cb565b50600591820154910155600c828101805491830180546001600160a01b0319166001600160a01b03909316929092178255600d80850180549293926134779286019190600260001960018316156101000201909116046148cb565b506002828101805461349c9284810192916000196101006001831615020116046148cb565b505050600f820181600f0160008201548160000155600182018160010190805460018160011615610100020316600290046134d89291906148cb565b50600282015481600201556003820181600301908054600181600116156101000203166002900461350a9291906148cb565b5050506013828101805491830180546001600160a01b0319166001600160a01b039093169290921782556014808501805492939261355e9286019190600260001960018316156101000201909116046148cb565b50600282810180546135839284810192916000196101006001831615020116046148cb565b505050601691820154910155506040805184815290517f8a746d5b91a9a334d1abbeee7d031aac6d5c59ea6e982ac06aef4346cce5749e9181900360200190a1505050565b6000828152600460205260408120805460001981019081106135e657fe5b906000526020600020906017020190508181600401908051906020019061360e92919061484d565b50505050565b6001600160a01b03811661362757600080fd5b61363081612a80565b1561363a57600080fd5b6001600160a01b03166000908152600660205260409020805460ff19166001179055565b600060015483106136b6576040805162461bcd60e51b815260206004820152601a60248201527f50726f6475637420494420646f6573206e6f7420657869737421000000000000604482015290519081900360640190fd5b6000838152600460205260409020548210613718576040805162461bcd60e51b815260206004820152601b60248201527f486973746f727920696e646578206f7574206f6620626f756e64730000000000604482015290519081900360640190fd5b600083815260046020526040902080548390811061373257fe5b906000526020600020906017020160160154905092915050565b60008381526003602052604081205481908190819060609081908190819061377357600080fd5b60008b815260036020908152604091829020825180840190935260078352661c1c9bd91d58dd60ca1b928201929092528b51908c01207f36a4a183f82db747ab399ca476ab84cc3def6abe3ac63748d03b4584af38d05714156137e0575060008b81526003602052604090205b604080518082019091526007815266686973746f727960c81b6020918201528b51908c01207f5cb4ee416d23b95cd5367c15d6b361ec02394b3d48d629418b0e5e7eda67585814156138575760008c815260046020526040902080548b90811061384657fe5b906000526020600020906017020190505b8054600180830154600280850154600686015460078701805460408051602061010099841615999099026000190190921695909504601f810188900488028201880190955284815294956001600160a01b039384169593909216939092600889019260098a0192600a8b0192918691908301828280156139185780601f106138ed57610100808354040283529160200191613918565b820191906000526020600020905b8154815290600101906020018083116138fb57829003601f168201915b5050865460408051602060026001851615610100026000190190941693909304601f8101849004840282018401909252818152959950889450925084019050828280156139a65780601f1061397b576101008083540402835291602001916139a6565b820191906000526020600020905b81548152906001019060200180831161398957829003601f168201915b5050855460408051602060026001851615610100026000190190941693909304601f810184900484028201840190925281815295985087945092508401905082828015613a345780601f10613a0957610100808354040283529160200191613a34565b820191906000526020600020905b815481529060010190602001808311613a1757829003601f168201915b5050845460408051602060026001851615610100026000190190941693909304601f810184900484028201840190925281815295975086945092508401905082828015613ac25780601f10613a9757610100808354040283529160200191613ac2565b820191906000526020600020905b815481529060010190602001808311613aa557829003601f168201915b5050505050905098509850985098509850985098509850509397509397509397509397565b6001600160a01b038116613afa57600080fd5b613b03816143b3565b15613b0d57600080fd5b6001600160a01b03166000908152600660205260409020805462ff0000191662010000179055565b82600260008281526003602052604090206005015460ff166008811115613b5857fe5b14613b6257600080fd5b6000848152600360205260409020600c01546001600160a01b0316338114613b8957600080fd5b613b92336129f0565b613b9b57600080fd5b60008581526003602090815260409091206002810180546001600160a01b031916331790558551613bd492600d9092019187019061484d565b5060008581526003602090815260409091208451613bfa92600e9092019186019061484d565b50600085815260036020818152604080842060058101805460ff191685179055426016820155600480845291852084845280546001818101808455928852949096208254601790970201958655838201548685015560028083015481880180546001600160a01b03199081166001600160a01b039384161790915584880154978901805490911697909116969096179095558282018054919692959294613cb394860193919290811615610100026000190116046148cb565b50600582810154908201805460ff9092169160ff19166001836008811115613cd757fe5b02179055506006828101805491830180546001600160a01b0319166001600160a01b0390931692909217825560078085018054929392613d2d9286019190600260001960018316156101000201909116046148cb565b5060028281018054613d529284810192916000196101006001831615020116046148cb565b5060038201816003019080546001816001161561010002031660029004613d7a9291906148cb565b5060048201816004019080546001816001161561010002031660029004613da29291906148cb565b50600591820154910155600c828101805491830180546001600160a01b0319166001600160a01b03909316929092178255600d8085018054929392613dfd9286019190600260001960018316156101000201909116046148cb565b5060028281018054613e229284810192916000196101006001831615020116046148cb565b505050600f820181600f016000820154816000015560018201816001019080546001816001161561010002031660029004613e5e9291906148cb565b506002820154816002015560038201816003019080546001816001161561010002031660029004613e909291906148cb565b5050506013828101805491830180546001600160a01b0319166001600160a01b0390931692909217825560148085018054929392613ee49286019190600260001960018316156101000201909116046148cb565b5060028281018054613f099284810192916000196101006001831615020116046148cb565b505050601691820154910155506040805186815290517f322f34e90f2269750b3e28178631d975cc678db36f21098fe548b7f755ce0bd09181900360200190a15050505050565b6000818152600360205260409020600601546001600160a01b0316338114613f7757600080fd5b613f8033612a80565b613f8957600080fd5b6000828152600360208181526040808420600581018054600260ff19909116811790915542601683015560048085529286208585528054600181810180845592895295909720835460179098020196875584830154878601558183015487830180546001600160a01b03199081166001600160a01b039384161790915584880154978901805490911697909116969096179095558282018054959692959294614046948601939192908216156101000260001901909116046148cb565b50600582810154908201805460ff9092169160ff1916600183600881111561406a57fe5b02179055506006828101805491830180546001600160a01b0319166001600160a01b03909316929092178255600780850180549293926140c09286019190600260001960018316156101000201909116046148cb565b50600282810180546140e59284810192916000196101006001831615020116046148cb565b506003820181600301908054600181600116156101000203166002900461410d9291906148cb565b50600482018160040190805460018160011615610100020316600290046141359291906148cb565b50600591820154910155600c828101805491830180546001600160a01b0319166001600160a01b03909316929092178255600d80850180549293926141909286019190600260001960018316156101000201909116046148cb565b50600282810180546141b59284810192916000196101006001831615020116046148cb565b505050600f820181600f0160008201548160000155600182018160010190805460018160011615610100020316600290046141f19291906148cb565b5060028201548160020155600382018160030190805460018160011615610100020316600290046142239291906148cb565b5050506013828101805491830180546001600160a01b0319166001600160a01b03909316929092178255601480850180549293926142779286019190600260001960018316156101000201909116046148cb565b506002828101805461429c9284810192916000196101006001831615020116046148cb565b505050601691820154910155506040805183815290517f25727bef8a186dd95a062151451f2d651551b53124c18208d7653b1217ae31ba9181900360200190a15050565b600154600019908101600090815260046020526040902080548392810190811061430657fe5b9060005260206000209060170201600401908051906020019061432a92919061484d565b5060015460001901600090815260036020908152604090912082516143579260049092019184019061484d565b5050565b60025481565b6001600160a01b03811661437457600080fd5b61437d816129f0565b1561438757600080fd5b6001600160a01b03166000908152600660205260409020805461ff001916610100179055565b60015481565b60006001600160a01b0382166143c857600080fd5b506001600160a01b031660009081526006602052604090205462010000900460ff1690565b60008381526003602052604081205460609190829081908390829061441157600080fd5b600089815260036020908152604091829020825180840190935260078352661c1c9bd91d58dd60ca1b928201929092528951908a01207f36a4a183f82db747ab399ca476ab84cc3def6abe3ac63748d03b4584af38d057141561447e575060008981526003602052604090205b604080518082019091526007815266686973746f727960c81b6020918201528951908a01207f5cb4ee416d23b95cd5367c15d6b361ec02394b3d48d629418b0e5e7eda67585814156144f55760008a81526004602052604090208054899081106144e457fe5b906000526020600020906017020190505b60138101546003820154600e8301805460408051602060026101006001861615026000190190941693909304601f810184900484028201840190925281815292946001600160a01b039081169460148801946015890194929091169260048901928891908301828280156145aa5780601f1061457f576101008083540402835291602001916145aa565b820191906000526020600020905b81548152906001019060200180831161458d57829003601f168201915b5050875460408051602060026001851615610100026000190190941693909304601f8101849004840282018401909252818152959b50899450925084019050828280156146385780601f1061460d57610100808354040283529160200191614638565b820191906000526020600020905b81548152906001019060200180831161461b57829003601f168201915b5050865460408051602060026001851615610100026000190190941693909304601f8101849004840282018401909252818152959950889450925084019050828280156146c65780601f1061469b576101008083540402835291602001916146c6565b820191906000526020600020905b8154815290600101906020018083116146a957829003601f168201915b5050845460408051602060026001851615610100026000190190941693909304601f8101849004840282018401909252818152959850869450925084019050828280156147545780601f1061472957610100808354040283529160200191614754565b820191906000526020600020905b81548152906001019060200180831161473757829003601f168201915b505050505090509650965096509650965096505093975093979195509350565b60e0810180516000908190528151606060209182018190529251604090810184905261012085018051849052805190920184905290510182905282820152608090910152565b6101009094018051602001939093528251919091528151604001525160600152565b6040805161016081018252600080825260208201819052918101829052606080820183905260808201529060a08201908152602001614819614940565b815260200161482661497f565b81526020016148336149a9565b815260200161484061497f565b8152602001600081525090565b828054600181600116156101000203166002900490600052602060002090601f016020900481019282601f1061488e57805160ff19168380011785556148bb565b828001600101855582156148bb579182015b828111156148bb5782518255916020019190600101906148a0565b506148c79291506149d1565b5090565b828054600181600116156101000203166002900490600052602060002090601f016020900481019282601f1061490457805485556148bb565b828001600101855582156148bb57600052602060002091601f016020900482015b828111156148bb578254825591600101919060010190614925565b6040518060c0016040528060006001600160a01b0316815260200160608152602001606081526020016060815260200160608152602001600081525090565b604051806060016040528060006001600160a01b0316815260200160608152602001606081525090565b6040518060800160405280600081526020016060815260200160008152602001606081525090565b612a7d91905b808211156148c757600081556001016149d756fe50726f64756374206973206e6f7420696e20274d616e7566616374757265642720737461746543616c6c657220646f6573206e6f7420686176652072657461696c657220726f6c65a265627a7a72315820ec4ced72787495be72495934eb955ffe46623cb951559ee1c96f00634dce09a664736f6c63430005100032",
  "source": "// SPDX-License-Identifier: MIT\npragma solidity >=0.4.21 <0.9.0;\n\nimport \"./ChainData.sol\";\n\ncontract SupplyChain {\n    event ManufacturerAdded(address indexed _account);\n\n    address owner;\n    // product id\n    uint256 public uid;\n    uint256 public stockKeepingUnit;\n\n    // assign an id for each product stored in the structure\n    mapping(uint256 => ChainData.Product) products;\n    mapping(uint256 => ChainData.ProductHistory) productHistory;\n    mapping(bytes32 => uint256) productStockCounter;\n\n    // assign an Ethereum address representing an actor in the supply chain\n    mapping(address => ChainData.Roles) roles;\n\n    function hasManufacturerRole(address _account) public view returns (bool) {\n        require((_account != address(0)));\n        return roles[_account].Manufacturer; // true if the Role instance of account is a Manufacturer\n    }\n\n    function addManufacturerRole(address _account) public {\n        require((_account != address(0)));\n        require(!hasManufacturerRole(_account));\n        roles[_account].Manufacturer = true;\n    }\n\n    function hasRetailerRole(address _account) public view returns (bool) {\n        require(_account != address(0));\n        return roles[_account].Retailer;\n    }\n\n    function addRetailerRole(address _account) public {\n        require(_account != address(0));\n        require(!hasRetailerRole(_account));\n        roles[_account].Retailer = true;\n    }\n\n    function hasDistributionHubRole(\n        address _account\n    ) public view returns (bool) {\n        require(_account != address(0));\n        return roles[_account].DistributionHub;\n    }\n\n    function addDistributionHubRole(address _account) public {\n        require(_account != address(0));\n        require(!hasDistributionHubRole(_account));\n        roles[_account].DistributionHub = true;\n    }\n\n    function hasCustomerRole(address _account) public view returns (bool) {\n        require(_account != address(0));\n        return roles[_account].Customer;\n    }\n\n    function addCustomerRole(address _account) public {\n        require(_account != address(0));\n        require(!hasDistributionHubRole(_account));\n        roles[_account].Customer = true;\n    }\n\n    constructor() public payable {\n        owner = msg.sender;\n        stockKeepingUnit = 1;\n        uid = 1;\n    }\n\n    event Manufactured(uint256 uid);\n    event PurchasedByRetailer(uint256 uid);\n    event ShippedByManufacturer(uint256 uid);\n    event ReceivedByRetailer(uint256 uid);\n    event PurchasedByCustomer(uint256 uid);\n    event ShippedByRetailer(uint256 uid);\n    event ReceivedByDistributionHub(uint256 uid);\n    event ShippedByDistributionHub(uint256 uid);\n    event ReceivedByCustomer(uint256 uid);\n\n    modifier verifyAddress(address account) {\n        require(msg.sender == account);\n        _;\n    }\n\n    modifier manufactured(uint256 _uid) {\n        require(products[_uid].productState == ChainData.State.Manufactured);\n        _;\n    }\n\n    modifier shippedByManufacturer(uint256 _uid) {\n        require(\n            products[_uid].productState == ChainData.State.ShippedByManufacturer\n        );\n        _;\n    }\n\n    modifier receivedByRetailer(uint256 _uid) {\n        require(\n            products[_uid].productState == ChainData.State.ReceivedByRetailer\n        );\n        _;\n    }\n\n    modifier purchasedByCustomer(uint256 _uid) {\n        require(\n            products[_uid].productState == ChainData.State.PurchasedByCustomer\n        );\n        _;\n    }\n\n    modifier shippedByRetailer(uint256 _uid) {\n        require(\n            products[_uid].productState == ChainData.State.ShippedByRetailer\n        );\n        _;\n    }\n\n    modifier receivedByDistributionHub(uint256 _uid) {\n        require(\n            products[_uid].productState ==\n                ChainData.State.ReceivedByDistributionHub\n        );\n        _;\n    }\n\n    modifier shippedByDistributionHub(uint256 _uid) {\n        require(\n            products[_uid].productState ==\n                ChainData.State.ShippedByDistributionHub\n        );\n        _;\n    }\n\n    modifier receivedByCustomer(uint256 _uid) {\n        require(\n            products[_uid].productState == ChainData.State.ReceivedByCustomer\n        );\n        _;\n    }\n\n    function initialiseBaseProductDetails(\n        ChainData.Product memory product\n    ) internal pure {\n        address retailer;\n        string memory transaction;\n        string memory retailerLongitude;\n        string memory retailerLatitude;\n\n        address distributionHub;\n        string memory distributionHubLongitude;\n        string memory distributionHubLatitude;\n        address customer;\n\n        product.retailer.retailer = retailer;\n        product.retailer.retailerLongitude = retailerLongitude;\n        product.retailer.retailerLatitude = retailerLatitude;\n\n        product.distributionHub.distributionHub = distributionHub;\n        product.distributionHub.hubLongitude = distributionHubLongitude;\n        product.distributionHub.hubLatitude = distributionHubLatitude;\n\n        product.customer = customer;\n        product.transaction = transaction;\n    }\n\n    function initialiseProductDetails(\n        ChainData.Product memory product,\n        string memory productName,\n        uint256 productCode,\n        uint256 productPrice,\n        string memory productCategory\n    ) internal pure {\n        product.details.productName = productName;\n        product.details.productCode = productCode;\n        product.details.productPrice = productPrice;\n        product.details.productCategory = productCategory;\n    }\n\n    // Supply chain processes\n    // Step 1: Product manufacturing\n\n    function manufactureProduct(\n        string memory manufacturerName,\n        string memory manufactureDetails,\n        string memory manufactureLongitude,\n        string memory manufactureLatitude,\n        string memory productName,\n        uint256 productCode,\n        uint256 productPrice,\n        string memory productCategory\n    ) public {\n        require(hasManufacturerRole(msg.sender));\n        uint256 _uid = uid;\n\n        ChainData.Product memory product;\n        product.uid = _uid;\n\n        bytes32 productTypeKey = keccak256(\n            abi.encodePacked(productName, productCategory)\n        );\n\n        if (productStockCounter[productTypeKey] == 0) {\n            productStockCounter[productTypeKey] = 1;\n        } else {\n            productStockCounter[productTypeKey]++;\n        }\n\n        product.stockKeepingUnit = productStockCounter[productTypeKey];\n        product.manufacturer.manufacturerName = manufacturerName;\n        product.manufacturer.manufacturerDetails = manufactureDetails;\n        product.manufacturer.factoryLongitude = manufactureLongitude;\n        product.manufacturer.factoryLatitude = manufactureLatitude;\n        product.manufacturer.manufacturedDate = block.timestamp;\n\n        product.owner = msg.sender;\n        product.manufacturer.manufacturer = msg.sender;\n        initialiseBaseProductDetails(product);\n        product.productState = ChainData.State.Manufactured;\n\n        initialiseProductDetails(\n            product,\n            productName,\n            productCode,\n            productPrice,\n            productCategory\n        );\n\n        product.operationTimestamp = block.timestamp;\n\n        products[_uid] = product;\n        productHistory[_uid].history.push(product);\n\n        uid++;\n        emit Manufactured(_uid);\n    }\n\n    // Step 2: Retailer purchase the product from the Manufacturer\n    function purchaseByRetailer(uint256 _uid) public manufactured(_uid) {\n        require(\n            hasRetailerRole(msg.sender),\n            \"Caller does not have retailer role\"\n        );\n        require(\n            products[_uid].productState == ChainData.State.Manufactured,\n            \"Product is not in 'Manufactured' state\"\n        );\n\n        products[_uid].retailer.retailer = msg.sender;\n        products[_uid].productState = ChainData.State.PurchasedByRetailer;\n        products[_uid].operationTimestamp = block.timestamp;\n\n        productHistory[_uid].history.push(products[_uid]);\n        emit PurchasedByRetailer(_uid);\n    }\n\n    // Step 3: Product shipping to Retailer\n    function shipToRetailer(\n        uint256 _uid\n    ) public verifyAddress(products[_uid].manufacturer.manufacturer) {\n        require(hasManufacturerRole(msg.sender));\n        products[_uid].productState = ChainData.State.ShippedByManufacturer;\n        products[_uid].operationTimestamp = block.timestamp;\n\n        productHistory[_uid].history.push(products[_uid]);\n        emit ShippedByManufacturer(_uid);\n    }\n\n    // Step 4: Retailer receives the product shipped by Manufacturer\n    function receiveByRetailer(\n        uint256 _uid,\n        string memory retailerLongitude,\n        string memory retailerLatitude\n    )\n        public\n        shippedByManufacturer(_uid)\n        verifyAddress(products[_uid].retailer.retailer)\n    {\n        require(hasRetailerRole(msg.sender));\n        products[_uid].owner = msg.sender;\n        products[_uid].retailer.retailerLongitude = retailerLongitude;\n        products[_uid].retailer.retailerLatitude = retailerLatitude;\n        products[_uid].productState = ChainData.State.ReceivedByRetailer;\n        products[_uid].operationTimestamp = block.timestamp;\n\n        productHistory[_uid].history.push(products[_uid]);\n        emit ReceivedByRetailer(_uid);\n    }\n\n    // Step 5: Customer purchases a product from the Retailer\n    function purchaseByCustomer(uint256 _uid) public receivedByRetailer(_uid) {\n        require(hasCustomerRole(msg.sender));\n        products[_uid].customer = msg.sender;\n        products[_uid].productState = ChainData.State.PurchasedByCustomer;\n        products[_uid].operationTimestamp = block.timestamp;\n\n        productHistory[_uid].history.push(products[_uid]);\n        emit PurchasedByCustomer(_uid);\n    }\n\n    // Step 6: Product shipping to Customer via Distribution Hub by Retailer\n    function shipByRetailer(\n        uint256 _uid\n    )\n        public\n        verifyAddress(products[_uid].owner)\n        verifyAddress(products[_uid].retailer.retailer)\n    {\n        require(hasRetailerRole(msg.sender));\n        products[_uid].productState = ChainData.State.ShippedByRetailer;\n        products[_uid].operationTimestamp = block.timestamp;\n\n        productHistory[_uid].history.push(products[_uid]);\n        emit ShippedByRetailer(_uid);\n    }\n\n    // Step 7: Distribution Hub received product from Retailer and will deliver it to Customer\n    function receiveByDistributionHub(\n        uint256 _uid,\n        string memory hubLongitude,\n        string memory hubLatitude\n    ) public shippedByRetailer(_uid) {\n        require(hasDistributionHubRole(msg.sender));\n        products[_uid].owner = msg.sender;\n        products[_uid].distributionHub.distributionHub = msg.sender;\n        products[_uid].distributionHub.hubLongitude = hubLongitude;\n        products[_uid].distributionHub.hubLatitude = hubLatitude;\n        products[_uid].productState = ChainData.State.ReceivedByDistributionHub;\n        products[_uid].operationTimestamp = block.timestamp;\n\n        productHistory[_uid].history.push(products[_uid]);\n        emit ReceivedByDistributionHub(_uid);\n    }\n\n    // Step 8: Product shipping to Customer\n    function shipByDistributionHub(\n        uint256 _uid\n    )\n        public\n        receivedByDistributionHub(_uid)\n        verifyAddress(products[_uid].owner)\n        verifyAddress(products[_uid].distributionHub.distributionHub)\n    {\n        require(hasDistributionHubRole(msg.sender));\n        products[_uid].productState = ChainData.State.ShippedByDistributionHub;\n        products[_uid].operationTimestamp = block.timestamp;\n\n        productHistory[_uid].history.push(products[_uid]);\n        emit ShippedByDistributionHub(_uid);\n    }\n\n    // Step 9: Customer receives the product\n    function receiveByCustomer(\n        uint256 _uid\n    )\n        public\n        shippedByDistributionHub(_uid)\n        verifyAddress(products[_uid].customer)\n    {\n        require(hasCustomerRole(msg.sender));\n        products[_uid].owner = msg.sender;\n        products[_uid].productState = ChainData.State.ReceivedByCustomer;\n        products[_uid].operationTimestamp = block.timestamp;\n\n        productHistory[_uid].history.push(products[_uid]);\n        emit ReceivedByCustomer(_uid);\n    }\n\n    // Get basic product details (sku, owner, manufacturer details)\n    function getBasicProductDetails(\n        uint256 _uid,\n        string memory _type,\n        uint256 i\n    )\n        public\n        view\n        returns (\n            uint256,\n            uint256,\n            address,\n            address,\n            string memory,\n            string memory,\n            string memory,\n            string memory\n        )\n    {\n        require(products[_uid].uid != 0);\n        // product data will be persisted in the contract's storage for further use (stored permanently in the blockchain)\n        ChainData.Product storage product = products[_uid];\n\n        // checks the _type parameter is equal to \"product\" by comparing their keccak256 hashes (used for data encryption & security)\n        if (keccak256(bytes(_type)) == keccak256(bytes(\"product\"))) {\n            product = products[_uid];\n        }\n\n        if (keccak256(bytes(_type)) == keccak256(bytes(\"history\"))) {\n            product = productHistory[_uid].history[i];\n        }\n\n        return (\n            product.uid,\n            product.stockKeepingUnit,\n            product.owner,\n            product.manufacturer.manufacturer,\n            product.manufacturer.manufacturerName,\n            product.manufacturer.manufacturerDetails,\n            product.manufacturer.factoryLongitude,\n            product.manufacturer.factoryLatitude\n        );\n    }\n\n    // Get additional product details and retailer info\n    function getAdditionalProductDetails(\n        uint256 _uid,\n        string memory _type,\n        uint256 i\n    )\n        public\n        view\n        returns (\n            uint256,\n            string memory,\n            uint256,\n            uint256,\n            string memory,\n            ChainData.State,\n            address,\n            string memory,\n            string memory\n        )\n    {\n        require(products[_uid].uid != 0);\n        ChainData.Product storage product = products[_uid];\n\n        if (keccak256(bytes(_type)) == keccak256(bytes(\"product\"))) {\n            product = products[_uid];\n        }\n\n        if (keccak256(bytes(_type)) == keccak256(bytes(\"history\"))) {\n            product = productHistory[_uid].history[i];\n        }\n\n        return (\n            product.manufacturer.manufacturedDate,\n            product.details.productName,\n            product.details.productCode,\n            product.details.productPrice,\n            product.details.productCategory,\n            product.productState,\n            product.retailer.retailer,\n            product.retailer.retailerLongitude,\n            product.retailer.retailerLatitude\n        );\n    }\n\n    // Get details about retailer & distribution hub and transaction\n    function getRetailerDistributionDetails(\n        uint256 _uid,\n        string memory _type,\n        uint256 i\n    )\n        public\n        view\n        returns (\n            string memory,\n            address,\n            string memory,\n            string memory,\n            address,\n            string memory\n        )\n    {\n        require(products[_uid].uid != 0);\n        ChainData.Product storage product = products[_uid];\n\n        if (keccak256(bytes(_type)) == keccak256(bytes(\"product\"))) {\n            product = products[_uid];\n        }\n\n        if (keccak256(bytes(_type)) == keccak256(bytes(\"history\"))) {\n            product = productHistory[_uid].history[i];\n        }\n\n        return (\n            product.retailer.retailerLatitude,\n            product.distributionHub.distributionHub,\n            product.distributionHub.hubLongitude,\n            product.distributionHub.hubLatitude,\n            product.customer,\n            product.transaction\n        );\n    }\n\n    function getProductCount() public view returns (uint256) {\n        return uid;\n    }\n\n    function getProductHistoryLength(\n        uint256 _uid\n    ) public view returns (uint256) {\n        return productHistory[_uid].history.length;\n    }\n\n    function getProductState(\n        uint256 _uid\n    ) public view returns (ChainData.State) {\n        return products[_uid].productState;\n    }\n\n    function getOperationTimestamp(\n        uint256 _uid,\n        uint256 historyIndex\n    ) public view returns (uint256) {\n        require(_uid < uid, \"Product ID does not exist!\");\n        require(\n            historyIndex < productHistory[_uid].history.length,\n            \"History index out of bounds\"\n        );\n        return productHistory[_uid].history[historyIndex].operationTimestamp;\n    }\n\n    // update the history of transactions for the current product in the ledger\n    function setTransactionHashOnManufacture(string memory transaction) public {\n        // accesses the most recent history entry of current product (last one)\n        productHistory[uid - 1]\n            .history[productHistory[uid - 1].history.length - 1]\n            .transaction = transaction;\n\n        products[uid - 1].transaction = transaction;\n    }\n\n    function setTransactionHash(\n        uint256 _uid,\n        string memory transaction\n    ) public {\n        ChainData.Product storage product = productHistory[_uid].history[\n            productHistory[_uid].history.length - 1\n        ];\n        product.transaction = transaction;\n    }\n}\n",
  "sourcePath": "/Users/mac/Desktop/scm-dapp/contracts/SupplyChain.sol",
  "compiler": {
    "name": "solc",
    "version": "0.5.16+commit.9c3226ce.Emscripten.clang"
  },
  "schemaVersion": "3.4.16",
  "updatedAt": "2024-06-25T14:53:28.792Z",
  "networkType": "ethereum",
  "devdoc": {
    "methods": {}
  },
  "userdoc": {
    "methods": {}
  }
}